:100000000C9435000C945D000C945D000C945D0024
:100010000C945D000C945D000C945D000C945D00EC
:100020000C945D000C945D000C945D000C945D00DC
:100030000C945D000C945D000C945D000C945D00CC
:100040000C94FA030C945D000C949E000C94EC004C
:100050000C945D000C945D000C945D000C945D00AC
:100060000C945D000C945D00580211241FBECFEF6C
:10007000D8E0DEBFCDBF11E0A0E0B1E0E4E2FAE0FD
:1000800002C005900D92A031B107D9F711E0A0E1AF
:10009000B1E001C01D92A33CB107E1F710E0CAE650
:1000A000D0E004C02297FE010E940C05C836D1079B
:1000B000C9F70E94AE020C9410050C9400000F9337
:1000C0001F93DF93CF9300D0CDB7DEB784E690E0E7
:1000D0009A83898308E911E0AE014F5F5F4F66277D
:1000E00057FD6095762FC8012AE030E00E94C703D3
:1000F0001A82198288E090E09093010080930000BA
:10010000C80168E070E04AE050E00E94DB0368EB61
:100110007BE080E090E00E9468040F900F90CF9108
:10012000DF911F910F91089588E991E040E855E231
:1001300060E070E00E942701089508951F920F92D9
:100140000FB60F9211242F933F934F938F939F934A
:10015000EF93FF938091C00082FD1DC04091C600C7
:1001600020915001309151012F5F3F4F2F7330701C
:1001700080915201909153012817390771F0E09155
:100180005001F0915101E05FFE4F408330935101E7
:100190002093500102C08091C600FF91EF919F9182
:1001A0008F914F913F912F910F900FBE0F901F9005
:1001B0001895E091A401F091A501E05CFF4F8191B9
:1001C000919120813181821B930B8F739070892BC9
:1001D00011F00E949D0008951F920F920FB60F928A
:1001E00011242F933F938F939F93EF93FF9320912D
:1001F0009401309195018091960190919701281773
:10020000390731F48091C1008F7D8093C10014C003
:10021000E0919601F0919701EC5AFE4F2081809178
:1002200096019091970101968F739070909397012A
:10023000809396012093C600FF91EF919F918F913B
:100240003F912F910F900FBE0F901F901895AF9276
:10025000BF92DF92EF92FF920F931F93CF93DF93A2
:10026000EC017A018B01DD24403081EE580780E0FB
:10027000680780E0780711F0DD24D39491E0A92E7F
:10028000B12CEC89FD89DD2069F0C50108A002C010
:10029000880F991F0A94E2F7808360E079E08DE38C
:1002A00090E005C0108260E874E88EE190E0A8015B
:1002B00097010E94E804215030404040504056953C
:1002C00047953795279580E12030380720F0DD20CD
:1002D00011F0DD24D6CFE889F9893083EA89FB89DA
:1002E000208319A2EE89FF89408121E030E0C90115
:1002F0000C8C02C0880F991F0A94E2F7482B4083A8
:10030000EE89FF894081C9010D8C02C0880F991FB9
:100310000A94E2F7482B4083EE89FF894081C901A6
:100320000E8C02C0880F991F0A94E2F7482B408375
:10033000EE89FF8980810F8C02C0220F331F0A943F
:10034000E2F7209528232083DF91CF911F910F9111
:10035000FF90EF90DF90BF90AF900895DC011C9666
:10036000ED91FC911D97E05CFF4F219131918081CF
:100370009181281B390B2F733070C9010895DC015E
:100380001C96ED91FC911D97E05CFF4F208131811F
:10039000E054F040DF01AE5BBF4F8D919C9111970F
:1003A0002817390719F42FEF3FEF07C08D919C9163
:1003B000E80FF91F8081282F30E0C9010895DC0182
:1003C0001C96ED91FC911D97E05CFF4F20813181DF
:1003D000E054F040DF01AE5BBF4F8D919C911197CF
:1003E0002817390719F42FEF3FEF10C08D919C911A
:1003F0001197E80FF91F20818D919C91119701961B
:100400008F73907011969C938E9330E0C90108957C
:10041000DC0191968C919197882339F05496ED9157
:10042000FC915597808186FFF9CF91961C92089593
:10043000CF93DF93EC01EE85FF85E05CFF4F2081D9
:100440003181E054F0402F5F3F4F2F733070DF0158
:10045000AE5BBF4F8D919C91119728173907D1F34F
:10046000E05CFF4F80819181E054F040E80FF91F7C
:100470006083EE85FF85E05CFF4F31832083EE894A
:10048000FF89208181E090E00F8C02C0880F991FC6
:100490000A94E2F7282B208381E089A3EC89FD8967
:1004A00080818064808381E090E0DF91CF91089526
:1004B00010929B0110929A0188EE93E0A0E0B0E0C8
:1004C00080939C0190939D01A0939E01B0939F0106
:1004D00084E091E0909399018093980180E191E00C
:1004E0009093A5018093A40184E591E09093A701E6
:1004F0008093A60185EC90E09093A9018093A801D8
:1005000084EC90E09093AB018093AA0180EC90E0A2
:100510009093AD018093AC0181EC90E09093AF019A
:100520008093AE0182EC90E09093B1018093B00192
:1005300086EC90E09093B3018093B20184E08093C5
:10054000B40183E08093B50187E08093B60185E034
:100550008093B70181E08093B8010895CF93DF9332
:100560000E948E040E949400C9EDD0E00E945F00BA
:100570002097E1F30E94D900F9CFCF92DF92EF925A
:10058000FF920F931F93CF93DF937C016B018A013E
:10059000C0E0D0E00FC0D6016D916D01D701ED91A3
:1005A000FC910190F081E02DC7010995C80FD91F7A
:1005B000015010400115110571F7CE01DF91CF9167
:1005C0001F910F91FF90EF90DF90CF900895EF92E1
:1005D000FF920F931F938C01DC01ED91FC91019030
:1005E000F081E02D6DE009957C01D801ED91FC9141
:1005F0000190F081E02DC8016AE009959C012E0D63
:100600003F1DC9011F910F91FF90EF900895CF9367
:10061000DF93EC016115710519F420E030E00FC0A3
:10062000DB010D900020E9F71197A61BB70BE881BD
:10063000F9810280F381E02DAD0109959C01C9018A
:10064000DF91CF9108954F925F927F928F929F9208
:10065000AF92BF92CF92DF92EF92FF920F931F93D0
:10066000DF93CF93CDB7DEB7A1970FB6F894DEBF77
:100670000FBECDBF2C01742ECB01223008F42AE02E
:1006800019A231E2C32ED12CCC0EDD1E822E99246C
:10069000AA24BB24672D752FA50194010E94E804AC
:1006A00079018A01C801B701A50194010E94C9041A
:1006B000472D461B0894C108D1084A3014F4405D08
:1006C00001C0495CF6014083E114F1040105110504
:1006D00021F07E2C5F2DC801DDCFC201B6010E9442
:1006E0000703A1960FB6F894DEBF0FBECDBFCF9122
:1006F000DF911F910F91FF90EF90DF90CF90BF900F
:10070000AF909F908F907F905F904F900895CF9281
:10071000DF92EF92FF920F931F93CF93DF93EC0141
:100720006A017B012115310541F4E881F9810190CD
:10073000F081E02D642F09951FC02A303105D1F4D6
:1007400077FF17C0E881F9810190F081E02D6DE21B
:1007500009958C0144275527BA014C195D096E098A
:100760007F09CE012AE00E9423039801280F391F38
:1007700004C02AE00E9423039C01C901DF91CF91AC
:100780001F910F91FF90EF90DF90CF900895EF921F
:10079000FF920F931F937C010E9487038C01C70176
:1007A0000E94E7029C01200F311FC9011F910F9188
:1007B000FF90EF900895CF92DF92EF92FF920F9308
:1007C0001F936C017B019A010027F7FC0095102F05
:1007D000B801A7010E9487038C01C6010E94E702AD
:1007E000080F191FC8011F910F91FF90EF90DF9024
:1007F000CF9008951F920F920FB60F9211242F934E
:100800003F938F939F93AF93BF938091BE0190913D
:10081000BF01A091C001B091C1013091C201019608
:10082000A11DB11D232F2D5F2D3720F02D570196CF
:10083000A11DB11D2093C2018093BE019093BF0101
:10084000A093C001B093C1018091BA019091BB0106
:10085000A091BC01B091BD010196A11DB11D809375
:10086000BA019093BB01A093BC01B093BD01BF91AD
:10087000AF919F918F913F912F910F900FBE0F904D
:100880001F9018959FB7F8942091BA013091BB0141
:100890004091BC015091BD0186B5A89B06C08F3F19
:1008A00021F02F5F3F4F4F4F5F4F9FBF542F432F7C
:1008B000322F2227280F311D411D511D82E0220FAA
:1008C000331F441F551F8A95D1F7B901CA010895F6
:1008D000EF92FF920F931F93CF93DF937B018C01D5
:1008E0000E944204EB010EC00E9442046C1B7D0B6F
:1008F000685E7340C8F30894E108F1080109110922
:10090000C851DC4FE114F1040105110569F7DF91CD
:10091000CF911F910F91FF90EF900895789484B537
:10092000826084BD84B5816084BD85B5826085BDEB
:1009300085B5816085BDEEE6F0E0808181608083D1
:10094000E1E8F0E0108280818260808380818160B4
:100950008083E0E8F0E0808181608083E1EBF0E07B
:10096000808184608083E0EBF0E08081816080831F
:10097000EAE7F0E080818460808380818260808308
:100980008081816080838081806880831092C10033
:100990000895629FD001739FF001829FE00DF11DC9
:1009A000649FE00DF11D929FF00D839FF00D749FE9
:1009B000F00D659FF00D9927729FB00DE11DF91F95
:1009C000639FB00DE11DF91FBD01CF0111240895F2
:1009D000A1E21A2EAA1BBB1BFD010DC0AA1FBB1F43
:1009E000EE1FFF1FA217B307E407F50720F0A21BB5
:1009F000B30BE40BF50B661F771F881F991F1A9422
:100A000069F760957095809590959B01AC01BD014B
:100A1000CF010895EE0FFF1F0590F491E02D09948A
:040A2000F894FFCF78
:100A2400000000001802BD02AE01DF01BF01080290
:00000001FF
