:100000000C94B2000C94DA000C94DA000C94E20424
:100010000C9406050C942A050C94DA000C94DA0072
:100020000C94DA000C94DA000C94DA000C94DA00E8
:100030000C94DA000C94DA000C94DA000C94DA00D8
:100040000C94880B0C94DA000C94D4070C942208BE
:100050000C94DA000C94DA000C94DA000C94DA00B8
:100060000C94DA000C94DA0000C2010001001100C7
:1000700011000C0000E100000A002500250021000D
:10008000009600001900390039003600127A00008D
:100090001F004600460044008070000022004D0012
:1000A0004D004A00004B00003600750075007200DC
:1000B000403800004A009C009C0099008025000008
:1000C0007200EC00EC00E900C0120000E900DA0167
:1000D000DA01D70160090000D701B603B603B30304
:1000E000B0040000B3036E076E076B0758020000F0
:1000F0006E07DC0EDC0ED80E2C010000DC0EC11DDC
:10010000C11DBE1D00000000240027002A000000C1
:100110000000250028002B0000000000230026001E
:10012000290004040404040404040202020202027A
:1001300003030303030301020408102040800102AB
:10014000040810200102040810200000000700022B
:100150000100000304060000000000000000E102AE
:100160008E09DA0211241FBECFEFD8E0DEBFCDBF6B
:1001700011E0A0E0B1E0E2E4FDE102C005900D92E3
:10018000AE39B107D9F712E0AEE9B1E001C01D9276
:10019000A63BB107E1F711E0C2E6D1E004C0229727
:1001A000FE010E94590ECE35D107C9F70E94E4091D
:1001B0000C94940E0C940000CF93DF93BC0182301A
:1001C000910510F462E070E0A091B402B091B50224
:1001D000ED01E0E0F0E040E050E021C0888199814D
:1001E0008617970769F48A819B81309719F093836A
:1001F000828304C09093B5028093B402FE0134C0A0
:100200006817790738F44115510519F084179507D7
:1002100008F4AC01FE018A819B819C01E9012097D1
:10022000E9F641155105A9F1CA01861B970B049700
:1002300008F4BA01E0E0F0E02AC08D919C9111979A
:1002400084179507F9F46417750781F412968D9158
:100250009C911397309719F09383828304C09093F5
:10026000B5028093B402FD0132964CC0CA01861BD0
:10027000970BFD01E80FF91F6193719302978D931E
:100280009C9340C0FD01828193819C01D90110970C
:10029000A1F68091B2029091B302892B41F4809132
:1002A0007A0190917B019093B3028093B2024091C6
:1002B0007C0150917D014115510541F44DB75EB768
:1002C0008091780190917901481B590B2091B202DD
:1002D0003091B302CA01821B930B8617970780F0F7
:1002E000AB014E5F5F4F8417950750F0420F531FCD
:1002F0005093B3024093B202F9016193719302C02B
:10030000E0E0F0E0CF01DF91CF910895CF93DF934C
:10031000009709F450C0EC0122971B821A82A09129
:10032000B402B091B502109709F140E050E0AC176B
:10033000BD0708F1BB83AA83FE0121913191E20F31
:10034000F31FAE17BF0779F48D919C911197280F79
:10035000391F2E5F3F4F3983288312968D919C91D0
:1003600013979B838A834115510571F4D093B5028D
:10037000C093B40220C012968D919C911397AD0149
:10038000009711F0DC01D3CFFA01D383C28321910E
:100390003191E20FF31FCE17DF0769F4888199814D
:1003A000280F391F2E5F3F4FFA01318320838A8146
:1003B0009B8193838283DF91CF910895A0E0B0E089
:1003C000E4EEF1E00C945F0E6C01009729F4CB0190
:1003D0000E94DC006C01C1C08EEF882E8FEF982E3A
:1003E0008C0C9D1C8601060F171F0815190508F4B3
:1003F000B2C0F401A081B181A617B707B8F0A5304B
:10040000B10508F4AAC0CD0104978617970708F430
:10041000A4C01297A61BB70BF801A193B193D40106
:100420006D937C93CF010E94860197C07B01EA1AED
:10043000FB0AEEEFFFEFEE0EFF1E36016A0E7B1E8B
:10044000C091B402D091B50244245524AA24BB24FF
:100450004AC0C615D705E1F5488159814E155F059B
:10046000B8F1CA0104978E159F05B0F41296A40F37
:10047000B51FF401B183A0832A813B81411451044B
:1004800031F0D20113963C932E93129766C03093AD
:10049000B5022093B40261C08A819B81F8019383E5
:1004A0008283425050404E195F095183408341146A
:1004B000510431F0D20113961C930E93129704C08D
:1004C0001093B5020093B402F4017183608345C0B8
:1004D00088819981A816B90608F45C012E018A81E9
:1004E0009B819C01E901209709F0B3CF8091B20272
:1004F0009091B30286159705E9F4A616B706D0F4D5
:1005000020917C0130917D012115310541F42DB7F9
:100510003EB78091780190917901281B390B021721
:100520001307C8F41093B3020093B202D4016D9381
:100530007C9313C0CB010E94DC00EC01009759F0C2
:10054000F40140815181B6010E94B302C6010E94AC
:1005500086016E0102C0CC24DD24C601CDB7DEB712
:10056000E0E10C947B0EFB01DC0102C001900D92D6
:1005700041505040D8F70895FB01DC0101900D92E5
:100580000020E1F708958130910551F46F5F7F4FAE
:1005900081F48EE991E063E042E00E944104089515
:1005A000892B39F46F5F7F4F21F48EE991E00E942F
:1005B0002C06089580E090E06FEF7FEF0E94C30269
:1005C000089581E090E06FEF7FEF0E94C3020895ED
:1005D0000F931F93DF93CF93CDB7DEB727970FB657
:1005E000F894DEBF0FBECDBF87E892E00E94E4081A
:1005F00018161906ECF487E892E00E941509BC0170
:100600008132910589F48E010F5F1F4FC8016EE999
:1006100071E00E947C0387E892E0B8010E94AA0A78
:10062000C8010E94020E04C08EE991E00E941D0ADA
:1006300027960FB6F894DEBF0FBECDBFCF91DF91E6
:100640001F910F910895DF92EF92FF920F931F93E6
:10065000DF93CF93CDB7DEB72E970FB6F894DEBFFA
:100660000FBECDBF87E892E040E855E260E070E061
:100670000E945D088E010F5F1F4FC80160E071E0AE
:100680000E94AC0D88E0E82EF12CEC0EFD1EC70197
:1006900063E071E00E94AC0D8EE991E0B801A70122
:1006A00023E030E00E94CA03D82EC7010E94020E48
:1006B000C8010E94020E87E892E061E171E00E94A9
:1006C000640ADD2029F087E892E065E271E004C069
:1006D00087E892E069E371E00E94640A2E960FB603
:1006E000F894DEBF0FBECDBFCF91DF911F910F9168
:1006F000FF90EF90DF900895CF92DF92EF92FF92FC
:100700000F931F93DF93CF93CDB7DEB727970FB625
:10071000F894DEBF0FBECDBFD82EC92EF62EE72E21
:1007200069E571E00E94AC0D00E010E08F2D9E2D78
:100730006DE571E00E94610A0F5F1F4F8F2D9E2DA6
:1007400060E571E00E94830B882381F70430110576
:100750006CF78E010F5F1F4FC8016F2D7E2D0E9419
:10076000EA0A8D2D9C2DB8010E943F0DC8010E9400
:10077000020E8D2D9C2D27960FB6F894DEBF0FBE6E
:10078000CDBFCF91DF911F910F91FF90EF90DF9040
:10079000CF9008955F926F927F928F929F92AF92C7
:1007A000BF92CF92DF92EF92FF920F931F93DF934E
:1007B000CF93CDB7DEB72E970FB6F894DEBF0FBE3E
:1007C000CDBF5C018B016A01390188E0E82EF12C74
:1007D000EC0EFD1EC70166E671E00E94C60DC70162
:1007E000B8010E94750D61E771E00E94590DB601D4
:1007F0000E94750D65E771E00E94590DBC018E01E4
:100800000F5F1F4FC8010E94F70DC7010E94080E1D
:100810005A2C8B2C9A2CDB2CEE24FF24C12E852DF8
:10082000982D602F7C2D0E94770A0894E11CF11C02
:10083000892D9D2D60E571E00E94830B882379F757
:100840006E147F0464F381E0F501848F802F9C2D6A
:100850000E94020E81E02E960FB6F894DEBF0FBE06
:10086000CDBFCF91DF911F910F91FF90EF90DF905F
:10087000CF90BF90AF909F908F907F906F905F9040
:1008800008950F931F938C0120E00E94A507C801D3
:1008900040E855E260E070E00E944E05F801148ED9
:1008A0001F910F910895FC018091BB019091BC01B3
:1008B0008E179F0711F480E00895838D8E7F838FBC
:1008C0009FB7F8941092FD018091FD018093FE0185
:1008D000F093BC01E093BB019FBF81E008950F93AB
:1008E0001F93CF93DF93FC01838DA685B7859585F4
:1008F000082F027081FF05C08C91892309F454C030
:1009000004C08C91892309F04FC08389948920E029
:1009100001972FEF8F3F9207D9F7C589D689A68512
:10092000B785758560E031E040E050E010E0CE0131
:10093000212F01972FEF8F3F9207D9F78C918723B3
:1009400011F0632B03C0832F80956823330F4F5F13
:100950005F4F4830510559F78789908D20E0019706
:100960002FEF8F3F9207D9F7011160958091FD011C
:100970002091FE0190E001968F73907030E0821715
:10098000930779F0E091FD01F0E0E354FE4F6083BE
:100990008091FD0190E001968F7390708093FD012E
:1009A00003C0838D8160838FDF91CF911F910F9161
:1009B00008958091BB019091BC01009711F00E94B5
:1009C0006F0408951F920F920FB60F9211242F9368
:1009D0003F934F935F936F937F938F939F93AF93C7
:1009E000BF93EF93FF930E94D904FF91EF91BF91C2
:1009F000AF919F918F917F916F915F914F913F91B7
:100A00002F910F900FBE0F901F9018951F920F926D
:100A10000FB60F9211242F933F934F935F936F93D1
:100A20007F938F939F93AF93BF93EF93FF930E9416
:100A3000D904FF91EF91BF91AF919F918F917F91D9
:100A40006F915F914F913F912F910F900FBE0F903B
:100A50001F9018951F920F920FB60F9211242F938B
:100A60003F934F935F936F937F938F939F93AF9336
:100A7000BF93EF93FF930E94D904FF91EF91BF9131
:100A8000AF919F918F917F916F915F914F913F9126
:100A90002F910F900FBE0F901F901895CF92DF925D
:100AA000EF92FF920F931F93CF93DF93EC017A01A4
:100AB0008B011A8E198E188E1F8A1E8A1D8A1C8A17
:100AC0001B8A20E030E06901CC0CDD1CC20ED31E75
:100AD000B601660F771F660F771FAB0148595F4F4E
:100AE000FA0185919591A591B4918E159F05A00766
:100AF000B107E9F4FB01E459FF4F859194919C8B78
:100B00008B8BFB01E259FF4F859194919E8B8D8BCE
:100B1000FB01E059FF4F85919491988F8F8BFB01DA
:100B2000EE58FF4F859194919A8F898F06C02F5F61
:100B30003F4F2D30310509F0C6CF8F89988D892B15
:100B400009F449C04C85463108F03DC090916800D9
:100B5000483010F484E005C04E3010F082E001C04F
:100B600081E0892B80936800483028F4EDE6F0E0BE
:100B7000ADE6B0E00BC04E3028F0ECE6F0E0ACE6BD
:100B8000B0E004C0EBE6F0E0ABE6B0E05081483006
:100B900040F481E090E002C0880F991F4A95E2F787
:100BA00010C0242F30E04E3018F42850304002C0DE
:100BB0002E50304081E090E002C0880F991F2A95A6
:100BC000E2F7852B8C93898D9A8D20E001972FEF8A
:100BD0008F3F9207D9F7CE010E945304DF91CF9146
:100BE0001F910F91FF90EF90DF90CF900895FC013F
:100BF0004485463180F5483028F4EDE6F0E0ADE676
:100C0000B0E00BC04E3028F4EBE6F0E0ABE6B0E02D
:100C100004C0ECE6F0E0ACE6B0E05081483040F4CF
:100C200081E090E002C0880F991F4A95E2F710C05A
:100C3000242F30E04E3018F42850304002C02E509F
:100C4000304081E090E002C0880F991F2A95E2F7BA
:100C5000809585238C930895FC0182E891E091832F
:100C60008083CF010E94F70508952091BB01309148
:100C7000BC012817390731F49091FE018091FD01E4
:100C8000981719F42FEF3FEF0FC0E091FE01F0E04D
:100C9000E354FE4F20818091FE0190E001968F7316
:100CA00090708093FE0130E0C90108952091BB014E
:100CB0003091BC012817390719F020E030E00EC050
:100CC0008091FD012091FE0190E0805C9F4F821B8E
:100CD000910960E470E00E940E0E9C01C901089524
:100CE0000F931F93DC0159968D919C915A97892BF4
:100CF00049F481E090E013969C938E93129720E044
:100D000030E097C00FB7F8945B968C915B97519643
:100D1000ED91FC91529750962C91509781FF8DC088
:100D20008081822B808359968D919C915A9705964C
:100D300020E001972FEF8F3F9207D9F75B968C91B8
:100D40005B9781FF35C031E040E050E070E010E09B
:100D5000832F90E0862397235196ED91FC91529733
:100D600050962C915097892B29F08081209528232B
:100D7000208303C08081822B808359968D919C9122
:100D80005A97212F01972FEF8F3F9207D9F7330FF3
:100D90004F5F5F4F48305105D9F65196ED91FC9168
:100DA0005297908150968C9150978095892333C0AB
:100DB00031E040E050E070E010E0832F90E08623C7
:100DC00097235196ED91FC91529750962C91509704
:100DD000892B21F08081822B808304C08081209523
:100DE0002823208359968D919C915A97212F019702
:100DF0002FEF8F3F9207D9F7330F4F5F5F4F483088
:100E00005105D9F65196ED91FC91529780815096FB
:100E10009C915097892B80830FBF59968D919C91FF
:100E20005A9720E001972FEF8F3F9207D9F721E0E3
:100E300030E0C9011F910F910895808120952823EA
:100E4000208371CF2091BB013091BC012817390755
:100E500049F49FB7F8941092FD018091FD018093B1
:100E6000FE019FBF08952091BB013091BC0128175E
:100E7000390731F49091FE018091FD01981719F422
:100E80002FEF3FEF0AC0E091FE01F0E0E354FE4F88
:100E90008081282F332727FD3095C90108951F939E
:100EA000CF93DF93EC01162F862F60E00E94190C80
:100EB0008B8D81FD04C0812F61E00E94850C1C8711
:100EC000212F30E0C9018A5C9E4FFC0184918D87FF
:100ED0002E5D3E4FF9016491E62FF0E0EE0FFF1F0B
:100EE000E85EFE4F859194919F878E87DF91CF9129
:100EF0001F910895FF920F931F938C01F62E862F5A
:100F000061E00E94190C8F2D61E00E94850C8F2DED
:100F100090E0FC01EA5CFE4FE491D8015096EC931E
:100F200050978E5D9E4FFC016491E62FF0E0EE0F2E
:100F3000FF1FE25FFE4F8591949152969C938E9392
:100F400051971F910F91FF900895FF920F931F9358
:100F50008C01F62EFC011382128288EE93E0A0E051
:100F6000B0E084839583A683B78382E891E0918380
:100F70008083148A138A168A158A108E178A128E15
:100F8000118E838D2170220F8C7F822B838FC8015D
:100F9000642F0E947A07C8016F2D0E944F071F918E
:100FA0000F91FF90089508951F920F920FB60F9220
:100FB00011242F933F934F938F939F93EF93FF931E
:100FC0008091C00082FD1DC04091C60020913F026B
:100FD000309140022F5F3F4F2F733070809141025C
:100FE000909142022817390771F0E0913F02F09189
:100FF0004002E150FE4F40833093400220933F0275
:1010000002C08091C600FF91EF919F918F914F9107
:101010003F912F910F900FBE0F901F901895E09168
:101020009302F0919402E05CFF4F819191912081B5
:101030003181821B930B8F739070892B11F00E946A
:10104000D30708951F920F920FB60F9211242F937A
:101050003F938F939F93EF93FF932091830230915F
:10106000840280918502909186022817390731F415
:101070008091C1008F7D8093C10014C0E0918502F2
:10108000F0918602ED5BFD4F208180918502909169
:10109000860201968F7390709093860280938502EA
:1010A0002093C600FF91EF919F918F913F912F91D7
:1010B0000F900FBE0F901F901895AF92BF92DF92C6
:1010C000EF92FF920F931F93CF93DF93EC017A017E
:1010D0008B01DD24403081EE580780E0680780E016
:1010E000780711F0DD24D39491E0A92EB12CEC897E
:1010F000FD89DD2069F0C50108A002C0880F991F95
:101100000A94E2F7808360E079E08DE390E005C027
:10111000108260E874E88EE190E0A80197010E94D7
:10112000210E21503040404050405695479537950C
:10113000279580E12030380720F0DD2011F0DD24F4
:10114000D6CFE889F9893083EA89FB89208319A2FF
:10115000EE89FF89408121E030E0C9010C8C02C09A
:10116000880F991F0A94E2F7482B4083EE89FF8984
:101170004081C9010D8C02C0880F991F0A94E2F7C3
:10118000482B4083EE89FF894081C9010E8C02C043
:10119000880F991F0A94E2F7482B4083EE89FF8954
:1011A00080810F8C02C0220F331F0A94E2F7209532
:1011B00028232083DF91CF911F910F91FF90EF9013
:1011C000DF90BF90AF900895DC011C96ED91FC91EB
:1011D0001D97E05CFF4F2191319180819181281B07
:1011E000390B2F733070C9010895DC011C96ED9105
:1011F000FC911D97E05CFF4F20813181E054F0406D
:10120000DF01AE5BBF4F8D919C9111972817390775
:1012100019F42FEF3FEF07C08D919C91E80FF91F54
:101220008081282F30E0C9010895DC011C96ED91E2
:10123000FC911D97E05CFF4F20813181E054F0402C
:10124000DF01AE5BBF4F8D919C9111972817390735
:1012500019F42FEF3FEF10C08D919C911197E80F7B
:10126000F91F20818D919C91119701968F73907039
:1012700011969C938E9330E0C9010895DC019196FC
:101280008C919197882339F05496ED91FC91559764
:10129000808186FFF9CF91961C920895CF93DF93BA
:1012A000EC01EE85FF85E05CFF4F20813181E05449
:1012B000F0402F5F3F4F2F733070DF01AE5BBF4FA9
:1012C0008D919C91119728173907D1F3E05CFF4F5E
:1012D00080819181E054F040E80FF91F6083EE8532
:1012E000FF85E05CFF4F31832083EE89FF892081F9
:1012F00081E090E00F8C02C0880F991F0A94E2F7FA
:10130000282B208381E089A3EC89FD89808180647A
:10131000808381E090E0DF91CF91089510928A025E
:101320001092890288EE93E0A0E0B0E080938B02F7
:1013300090938C02A0938D02B0938E0282E991E08B
:1013400090938802809387028FEF91E090939402AC
:101350008093930283E492E09093960280939502A7
:1013600085EC90E0909398028093970284EC90E053
:1013700090939A028093990280EC90E090939C0263
:1013800080939B0281EC90E090939E0280939D025B
:1013900082EC90E09093A00280939F0286EC90E014
:1013A0009093A2028093A10284E08093A30283E041
:1013B0008093A40287E08093A50285E08093A60233
:1013C00081E08093A7020895CF93DF930E94DE0B04
:1013D0000E942303CFE0D8E00E94E8022097E1F3C7
:1013E0000E940F08F9CFCF92DF92EF92FF920F93F6
:1013F0001F93CF93DF937C016B018A01C0E0D0E0A3
:101400000FC0D6016D916D01D701ED91FC91019056
:10141000F081E02DC7010995C80FD91F0150104078
:101420000115110571F7CE01DF91CF911F910F9139
:10143000FF90EF90DF90CF900895DC01ED91FC914B
:101440000190F081E02D09950895EF92FF920F939E
:101450001F938C01DC01ED91FC910190F081E02D56
:101460006DE009957C01D801ED91FC910190F0812E
:10147000E02DC8016AE009959C012E0D3F1DC901B0
:101480001F910F91FF90EF900895CF93DF93EC01A0
:101490006115710519F420E030E00FC0DB010D90FB
:1014A0000020E9F71197A61BB70BE881F9810280AC
:1014B000F381E02DAD0109959C01C901DF91CF9128
:1014C00008950E94450A0895EF92FF920F931F938B
:1014D0007C010E94450A8C01C7010E94250A080F61
:1014E000191FC8011F910F91FF90EF900895AF92BF
:1014F000BF92CF92DF92EF92FF920F931F93CF9301
:10150000DF935C016B01EE24FF24C0E0D0E010C04B
:10151000D501ED91FC9100811181C601BE010E94AF
:10152000B80C682FC501F8010995E80EF91E21963F
:10153000F60184819581C817D90750F3C701DF915F
:10154000CF911F910F91FF90EF90DF90CF90BF90C0
:10155000AF900895EF92FF920F931F937C010E942A
:10156000770A8C01C7010E94250A9C01200F311FB8
:10157000C9011F910F91FF90EF900895CF93DF93D2
:10158000EC010E94D00B688779878A879B87E88166
:10159000F9810680F781E02DCE0109959C0197FF26
:1015A00015C00E94D00B288539854A855B85621B52
:1015B000730B840B950B2C813D814E815F816217EB
:1015C00073078407950718F32FEF3FEFC901DF91E9
:1015D000CF9108950F931F93CF93DF93182F092F67
:1015E000EB0167E771E00E94AC0D04C0812F902FE2
:1015F0000E942C0DCE010E94BE0ABC0197FFF6CFBF
:10160000812F902FDF91CF911F910F9108956F92AD
:101610007F928F929F92AF92BF92CF92DF92EF9282
:10162000FF920F931F93CF93DF933C017B014A01FD
:1016300059016801FB0180818823D1F1C0E0D0E02D
:101640002DC0F701EC0FFD1F8081992787FD909534
:101650002817390711F0C0E0D0E0F701EC0FFD1FAB
:101660008081992787FD90952817390721F42196C5
:10167000C815D905E8F4C114D10481F0F501E00FD3
:10168000F11F8081992787FD90952817390731F43C
:101690000F5F1F4F0C151D0518F00CC000E010E087
:1016A000C3010E94BE0A9C011816190654F202C01A
:1016B00081E001C080E0DF91CF911F910F91FF90F9
:1016C000EF90DF90CF90BF90AF909F908F907F90E2
:1016D0006F9008950F931F939A01DB010D900020E6
:1016E000E9F7AD0141505040461B570BD9010D9011
:1016F0000020E9F71197A21BB30B8D010E94070B85
:101700001F910F91089540E050E00E946A0B0895E8
:101710001F920F920FB60F9211242F933F938F9326
:101720009F93AF93BF938091AD029091AE02A09131
:10173000AF02B091B0023091B1020196A11DB11D6E
:10174000232F2D5F2D3720F02D570196A11DB11DA0
:101750002093B1028093AD029093AE02A093AF02AA
:10176000B093B0028091A9029091AA02A091AB021D
:10177000B091AC020196A11DB11D8093A902909376
:10178000AA02A093AB02B093AC02BF91AF919F911C
:101790008F913F912F910F900FBE0F901F90189532
:1017A0008FB7F8942091AD023091AE024091AF0214
:1017B0005091B0028FBFB901CA010895789484B5E1
:1017C000826084BD84B5816084BD85B5826085BD3D
:1017D00085B5816085BDEEE6F0E080818160808323
:1017E000E1E8F0E010828081826080838081816006
:1017F0008083E0E8F0E0808181608083E1EBF0E0CD
:10180000808184608083E0EBF0E080818160808370
:10181000EAE7F0E080818460808380818260808359
:101820008081816080838081806880831092C10084
:101830000895CF93DF93482F50E0CA018A5C9E4FF2
:10184000FC0134914E5D5E4FFA018491882369F169
:1018500090E0880F991FFC01EC5FFE4FA591B491B9
:10186000FC01E25FFE4FC591D491662351F42FB77E
:10187000F8948C91932F909589238C938881892358
:101880000BC0623061F42FB7F8948C91932F909530
:1018900089238C938881832B88832FBF06C09FB7B1
:1018A000F8948C91832B8C939FBFDF91CF910895F7
:1018B000833071F0843028F48130A1F0823021F53A
:1018C00014C08630B1F08730D1F08430E9F404C020
:1018D000809180008F7703C0809180008F7D8093FE
:1018E0008000089584B58F7702C084B58F7D84BD54
:1018F00008958091B0008F778093B0000895809113
:10190000B0008F7D8093B0000895FF920F931F93D6
:10191000F62E482F50E0CA01865B9E4FFC012491B1
:10192000CA018A5C9E4FFC0114914E5D5E4FFA0124
:1019300004910023C9F0222319F0822F0E94580C31
:10194000E02FF0E0EE0FFF1FE25FFE4FA591B49194
:101950009FB7F894FF2021F48C911095812302C049
:101960008C91812B8C939FBF1F910F91FF900895B5
:10197000FC01848195816817790748F40190F08112
:10198000E02D309721F0E60FF71F8081089580E069
:1019900008950F931F93CF93DF93EC018B016F5F3B
:1019A0007F4F888199810E94DE01009711F480E0C9
:1019B00005C0998388831B830A8381E0DF91CF91DF
:1019C0001F910F910895CF93DF93EC018881998146
:1019D000892B29F08A819B818617970760F4CE01B5
:1019E0000E94C90C882341F08C819D81892B19F4B8
:1019F000E881F981108281E0DF91CF910895EF9223
:101A0000FF920F931F93CF93DF93EC017B016C81C7
:101A10007D81E114F104C1F04115510599F08A016D
:101A2000060F171FB8010E94E30C882369F0888114
:101A300099812C813D81820F931FB7010E94BC02C6
:101A40001D830C8381E001C080E0DF91CF911F9165
:101A50000F91FF90EF900895DF93CF9300D0CDB713
:101A6000DEB769831A82BE016F5F7F4F41E050E0AD
:101A70000E94FF0C0F900F90CF91DF910895FB0112
:101A800060817181448155810E94FF0C0895CF933C
:101A9000DF93EC0188819981009711F00E94860103
:101AA000198218821D821C821B821A82DF91CF91BB
:101AB00008950F931F93182F092F6115710561F079
:101AC000DB010D900020E9F71197A61BB70BAD01C4
:101AD0000E94FF0C882321F4812F902F0E94470D34
:101AE000812F902F1F910F9108950F931F93182FFF
:101AF000092FFB0160817181448155810E94FF0C97
:101B0000882321F4812F902F0E94470D812F902F41
:101B10001F910F910895EF92FF920F931F93CF9310
:101B2000DF93EC017B018A01BA010E94E30C882358
:101B300021F4CE010E94470D07C01D830C838881CC
:101B40009981B7010E94BC02CE01DF91CF911F9114
:101B50000F91FF90EF900895CF93DF93EC011982DE
:101B600018821B821A821D821C821E8261157105D9
:101B700051F0DB010D900020E9F71197A61BB70B80
:101B8000AD010E948B0DDF91CF910895CF93DF932C
:101B9000EC01198218821B821A821D821C821E820D
:101BA0006115710551F0DB010D900020E9F71197E7
:101BB000A61BB70BAD010E948B0DDF91CF9108954D
:101BC000CF93DF93EC01FB018617970761F06081EB
:101BD00071816115710529F0448155810E948B0D39
:101BE00002C00E94470DCE01DF91CF910895FC0104
:101BF00011821082138212821582148216820E9430
:101C0000E00D0895FC01808191810E948601089574
:101C1000FC01808191810E948601089597FB092E25
:101C200007260AD077FD04D02ED006D000201AF463
:101C3000709561957F4F0895F6F7909581959F4F28
:101C40000895A1E21A2EAA1BBB1BFD010DC0AA1FFD
:101C5000BB1FEE1FFF1FA217B307E407F50720F015
:101C6000A21BB30BE40BF50B661F771F881F991F90
:101C70001A9469F760957095809590959B01AC01D9
:101C8000BD01CF010895AA1BBB1B51E107C0AA1FCC
:101C9000BB1FA617B70710F0A61BB70B881F991F0D
:101CA0005A95A9F780959095BC01CD010895EE0F46
:101CB000FF1F0590F491E02D09942F923F924F92CF
:101CC0005F926F927F928F929F92AF92BF92CF92CC
:101CD000DF92EF92FF920F931F93CF93DF93CDB7D5
:101CE000DEB7CA1BDB0B0FB6F894DEBF0FBECDBF4D
:101CF00009942A88398848885F846E847D848C841E
:101D00009B84AA84B984C884DF80EE80FD800C8126
:101D10001B81AA81B981CE0FD11D0FB6F894DEBF09
:101D20000FBECDBFED01089511E0C2E6D1E004C0C1
:101D3000FE010E94590E2296C436D107C9F7F894C5
:021D4000FFCFD3
:101D42005F5F006472616361656E61647261636F9B
:101D5200002E2E2E2E204C6F616420646F6E652043
:101D62002E2E2E2E00576966692073746174757366
:101D72002E2E2E2E204F4B2E00576966692073742B
:101D8200617475732E2E2E2E204641494C2E000072
:101D92004F4B004552524F52002E2E2E0041542BD3
:101DA20043494653520041542B43574A41503D2226
:101DB20000222C22002200002000B60200000000B7
:101DC20000007006F30956063506330722070000A5
:0E1DD20000004E09F309E4081509F5083E0962
:00000001FF
