:100000000C94B2000C94DA000C94DA000C94C40343
:100010000C94E8030C940C040C94DA000C94DA00B1
:100020000C94DA000C94DA000C94DA000C94DA00E8
:100030000C94DA000C94DA000C94DA000C94DA00D8
:100040000C9407090C94DA000C94B6060C9404077F
:100050000C94DA000C94DA000C94DA000C94DA00B8
:100060000C94DA000C94DA0000C2010001001100C7
:1000700011000C0000E100000A002500250021000D
:10008000009600001900390039003600127A00008D
:100090001F004600460044008070000022004D0012
:1000A0004D004A00004B00003600750075007200DC
:1000B000403800004A009C009C0099008025000008
:1000C0007200EC00EC00E900C0120000E900DA0167
:1000D000DA01D70160090000D701B603B603B30304
:1000E000B0040000B3036E076E076B0758020000F0
:1000F0006E07DC0EDC0ED80E2C010000DC0EC11DDC
:10010000C11DBE1D00000000240027002A000000C1
:100110000000250028002B0000000000230026001E
:10012000290004040404040404040202020202027A
:1001300003030303030301020408102040800102AB
:10014000040810200102040810200000000700022B
:100150000100000304060000000000000000E202AD
:100160007008DB0211241FBECFEFD8E0DEBFCDBF89
:1001700011E0A0E0B1E0EAE8F6E102C005900D92DE
:10018000A832B107D9F712E0A8E2B1E001C01D9290
:10019000AF33B107E1F711E0C2E6D1E004C0229726
:1001A000FE010E94FD0ACE35D107C9F70E94C6089C
:1001B0000C94380B0C940000CF93DF93BC01823079
:1001C000910510F462E070E0A0913D02B0913E0212
:1001D000ED01E0E0F0E040E050E021C0888199814D
:1001E0008617970769F48A819B81309719F093836A
:1001F000828304C090933E0280933D02FE0134C08E
:100200006817790738F44115510519F084179507D7
:1002100008F4AC01FE018A819B819C01E9012097D1
:10022000E9F641155105A9F1CA01861B970B049700
:1002300008F4BA01E0E0F0E02AC08D919C9111979A
:1002400084179507F9F46417750781F412968D9158
:100250009C911397309719F09383828304C09093F5
:100260003E0280933D02FD0132964CC0CA01861BBE
:10027000970BFD01E80FF91F6193719302978D931E
:100280009C9340C0FD01828193819C01D90110970C
:10029000A1F680913B0290913C02892B41F4809120
:1002A00004019091050190933C0280933B024091A0
:1002B0000601509107014115510541F44DB75EB754
:1002C0008091020190910301481B590B20913B0240
:1002D00030913C02CA01821B930B8617970780F06E
:1002E000AB014E5F5F4F8417950750F0420F531FCD
:1002F00050933C0240933B02F9016193719302C019
:10030000E0E0F0E0CF01DF91CF910895CF93DF934C
:10031000009709F450C0EC0122971B821A82A09129
:100320003D02B0913E02109709F140E050E0AC1759
:10033000BD0708F1BB83AA83FE0121913191E20F31
:10034000F31FAE17BF0779F48D919C911197280F79
:10035000391F2E5F3F4F3983288312968D919C91D0
:1003600013979B838A834115510571F4D0933E0204
:10037000C0933D0220C012968D919C911397AD01C0
:10038000009711F0DC01D3CFFA01D383C28321910E
:100390003191E20FF31FCE17DF0769F4888199814D
:1003A000280F391F2E5F3F4FFA01318320838A8146
:1003B0009B8193838283DF91CF910895A0E0B0E089
:1003C000E4EEF1E00C94030B6C01009729F4CB01EF
:1003D0000E94DC006C01C1C08EEF882E8FEF982E3A
:1003E0008C0C9D1C8601060F171F0815190508F4B3
:1003F000B2C0F401A081B181A617B707B8F0A5304B
:10040000B10508F4AAC0CD0104978617970708F430
:10041000A4C01297A61BB70BF801A193B193D40106
:100420006D937C93CF010E94860197C07B01EA1AED
:10043000FB0AEEEFFFEFEE0EFF1E36016A0E7B1E8B
:10044000C0913D02D0913E0244245524AA24BB24ED
:100450004AC0C615D705E1F5488159814E155F059B
:10046000B8F1CA0104978E159F05B0F41296A40F37
:10047000B51FF401B183A0832A813B81411451044B
:1004800031F0D20113963C932E93129766C03093AD
:100490003E0220933D0261C08A819B81F8019383D3
:1004A0008283425050404E195F095183408341146A
:1004B000510431F0D20113961C930E93129704C08D
:1004C00010933E0200933D02F4017183608345C0A6
:1004D00088819981A816B90608F45C012E018A81E9
:1004E0009B819C01E901209709F0B3CF80913B02E9
:1004F00090913C0286159705E9F4A616B706D0F44C
:1005000020910601309107012115310541F42DB7E5
:100510003EB78091020190910301281B390B02170D
:100520001307C8F410933C0200933B02D4016D936F
:100530007C9313C0CB010E94DC00EC01009759F0C2
:10054000F40140815181B6010E94B302C6010E94AC
:1005500086016E0102C0CC24DD24C601CDB7DEB712
:10056000E0E10C941F0BFB01DC0102C001900D9235
:1005700041505040D8F70895FB01DC0101900D92E5
:100580000020E1F708958130910559F46F5F7F4FA6
:1005900089F488E291E063E042E020E00E9487066F
:1005A0000895892B39F46F5F7F4F21F488E291E041
:1005B0000E940E05089580E090E06FEF7FEF0E94AB
:1005C000C302089581E090E06FEF7FEF0E94C302C5
:1005D0000895DF93CF93CDB7DEB727970FB6F89482
:1005E000DEBF0FBECDBFCE01019660E071E00E947C
:1005F000920A88E291E00E943805892B49F088E24E
:1006000091E00E941705682F80E192E00E94FF08A8
:1006100080E192E00E94C607892B49F080E192E0D8
:100620000E94F707682F88E291E00E94FF08CE0140
:1006300001960E94AC0A27960FB6F894DEBF0FBE53
:10064000CDBFCF91DF91089580E192E040E855E27F
:1006500060E070E00E943F0788E291E040E855E2E8
:1006600060E070E00E9430040895FC018091440134
:10067000909145018E179F0711F480E00895838DB6
:100680008E7F838F9FB7F8941092860180918601A8
:1006900080938701F0934501E09344019FBF81E07F
:1006A00008950F931F93CF93DF93FC01838DA6854D
:1006B000B7859585082F027081FF05C08C9189232D
:1006C00009F454C004C08C91892309F04FC0838978
:1006D000948920E001972FEF8F3F9207D9F7C589C2
:1006E000D689A685B785758560E031E040E050E0A9
:1006F00010E0CE01212F01972FEF8F3F9207D9F7FE
:100700008C91872311F0632B03C0832F809568237E
:10071000330F4F5F5F4F4830510559F78789908DF0
:1007200020E001972FEF8F3F9207D9F701116095D5
:10073000809186012091870190E001968F739070DF
:1007400030E08217930779F0E0918601F0E0EA5BF0
:10075000FE4F60838091860190E001968F739070C8
:100760008093860103C0838D8160838FDF91CF9159
:100770001F910F9108958091440190914501009738
:1007800011F00E94510308951F920F920FB60F921D
:1007900011242F933F934F935F936F937F938F9386
:1007A0009F93AF93BF93EF93FF930E94BB03FF917F
:1007B000EF91BF91AF919F918F917F916F915F91D9
:1007C0004F913F912F910F900FBE0F901F90189552
:1007D0001F920F920FB60F9211242F933F934F93B6
:1007E0005F936F937F938F939F93AF93BF93EF9399
:1007F000FF930E94BB03FF91EF91BF91AF919F9137
:100800008F917F916F915F914F913F912F910F90B9
:100810000FBE0F901F9018951F920F920FB60F9258
:1008200011242F933F934F935F936F937F938F93F5
:100830009F93AF93BF93EF93FF930E94BB03FF91EE
:10084000EF91BF91AF919F918F917F916F915F9148
:100850004F913F912F910F900FBE0F901F901895C1
:10086000CF92DF92EF92FF920F931F93CF93DF937C
:10087000EC017A018B011A8E198E188E1F8A1E8A3E
:100880001D8A1C8A1B8A20E030E06901CC0CDD1C2B
:10089000C20ED31EB601660F771F660F771FAB011E
:1008A00048595F4FFA0185919591A591B4918E15A4
:1008B0009F05A007B107E9F4FB01E459FF4F8591BB
:1008C00094919C8B8B8BFB01E259FF4F8591949106
:1008D0009E8B8D8BFB01E059FF4F85919491988FF2
:1008E0008F8BFB01EE58FF4F859194919A8F898FE2
:1008F00006C02F5F3F4F2D30310509F0C6CF8F89DD
:10090000988D892B09F449C04C85463108F03DC0CB
:1009100090916800483010F484E005C04E3010F02B
:1009200082E001C081E0892B80936800483028F480
:10093000EDE6F0E0ADE6B0E00BC04E3028F0ECE6BE
:10094000F0E0ACE6B0E004C0EBE6F0E0ABE6B0E02F
:100950005081483040F481E090E002C0880F991F38
:100960004A95E2F710C0242F30E04E3018F428509A
:10097000304002C02E50304081E090E002C0880F2D
:10098000991F2A95E2F7852B8C93898D9A8D20E00B
:1009900001972FEF8F3F9207D9F7CE010E943503C1
:1009A000DF91CF911F910F91FF90EF90DF90CF904B
:1009B0000895FC014485463180F5483028F4EDE681
:1009C000F0E0ADE6B0E00BC04E3028F4EBE6F0E02E
:1009D000ABE6B0E004C0ECE6F0E0ACE6B0E050819D
:1009E000483040F481E090E002C0880F991F4A959A
:1009F000E2F710C0242F30E04E3018F42850304079
:100A000002C02E50304081E090E002C0880F991F54
:100A10002A95E2F7809585238C930895FC018CE05C
:100A200091E091838083CF010E94D90408952091A1
:100A30004401309145012817390731F4909187011D
:100A400080918601981719F42FEF3FEF0FC0E091C6
:100A50008701F0E0EA5BFE4F20818091870190E002
:100A600001968F7390708093870130E0C9010895DB
:100A700020914401309145012817390719F020E0F1
:100A800030E00EC0809186012091870190E0805C6B
:100A90009F4F821B910960E470E00E94B20A9C01A2
:100AA000C90108950F931F93DC0159968D919C9174
:100AB0005A97892B49F481E090E013969C938E938A
:100AC000129720E030E097C00FB7F8945B968C91B6
:100AD0005B975196ED91FC91529750962C915097BF
:100AE00081FF8DC08081822B808359968D919C914E
:100AF0005A97059620E001972FEF8F3F9207D9F77D
:100B00005B968C915B9781FF35C031E040E050E00F
:100B100070E010E0832F90E0862397235196ED91AB
:100B2000FC91529750962C915097892B29F08081F7
:100B300020952823208303C08081822B80835996AF
:100B40008D919C915A97212F01972FEF8F3F9207FC
:100B5000D9F7330F4F5F5F4F48305105D9F65196A3
:100B6000ED91FC915297908150968C915097809581
:100B7000892333C031E040E050E070E010E0832F83
:100B800090E0862397235196ED91FC9152975096D1
:100B90002C915097892B21F08081822B808304C077
:100BA000808120952823208359968D919C915A9776
:100BB000212F01972FEF8F3F9207D9F7330F4F5F08
:100BC0005F4F48305105D9F65196ED91FC915297FF
:100BD000808150969C915097892B80830FBF5996A6
:100BE0008D919C915A9720E001972FEF8F3F9207AC
:100BF000D9F721E030E0C9011F910F91089580815C
:100C000020952823208371CF209144013091450104
:100C10002817390749F49FB7F894109286018091FC
:100C20008601809387019FBF0895209144013091F0
:100C300045012817390731F4909187018091860189
:100C4000981719F42FEF3FEF0AC0E0918701F0E009
:100C5000EA5BFE4F8081282F332727FD3095C9019D
:100C600008951F93CF93DF93EC01162F862F60E03A
:100C70000E948A098B8D81FD04C0812F61E00E9452
:100C8000F6091C87212F30E0C9018A5C9E4FFC01C8
:100C900084918D872E5D3E4FF9016491E62FF0E03F
:100CA000EE0FFF1FE85EFE4F859194919F878E8720
:100CB000DF91CF911F910895FF920F931F938C01A5
:100CC000F62E862F61E00E948A098F2D61E00E9436
:100CD000F6098F2D90E0FC01EA5CFE4FE491D8010B
:100CE0005096EC9350978E5D9E4FFC016491E62FD9
:100CF000F0E0EE0FFF1FE25FFE4F85919491529658
:100D00009C938E9351971F910F91FF900895FF929E
:100D10000F931F938C01F62EFC011382128288EE32
:100D200093E0A0E0B0E084839583A683B7838CE052
:100D300091E091838083148A138A168A158A108E13
:100D4000178A128E118E838D2170220F8C7F822B39
:100D5000838FC801642F0E945C06C8016F2D0E941A
:100D600031061F910F91FF90089508951F920F92E1
:100D70000FB60F9211242F933F934F938F939F930E
:100D8000EF93FF938091C00082FD1DC04091C6008B
:100D90002091C8013091C9012F5F3F4F2F733070F0
:100DA0008091CA019091CB012817390771F0E09129
:100DB000C801F091C901E857FE4F40833093C90143
:100DC0002093C80102C08091C600FF91EF919F91CE
:100DD0008F914F913F912F910F900FBE0F901F90C9
:100DE0001895E0911C02F0911D02E05CFF4F81918B
:100DF000919120813181821B930B8F739070892B8D
:100E000011F00E94B50608951F920F920FB60F922F
:100E100011242F933F938F939F93EF93FF932091F0
:100E20000C0230910D0280910E0290910F02281752
:100E3000390731F48091C1008F7D8093C10014C0C7
:100E4000E0910E02F0910F02E453FE4F2081809159
:100E50000E0290910F0201968F73907090930F0283
:100E600080930E022093C600FF91EF919F918F9186
:100E70003F912F910F900FBE0F901F901895AF923A
:100E8000BF92DF92EF92FF920F931F93CF93DF9366
:100E9000EC017A018B01DD24403081EE580780E0BF
:100EA000680780E0780711F0DD24D39491E0A92E43
:100EB000B12CEC89FD89DD2069F0C50108A002C0D4
:100EC000880F991F0A94E2F7808360E079E08DE350
:100ED00090E005C0108260E874E88EE190E0A8011F
:100EE00097010E94C50A215030404040504056951D
:100EF00047953795279580E12030380720F0DD2091
:100F000011F0DD24D6CFE889F9893083EA89FB899D
:100F1000208319A2EE89FF89408121E030E0C901D8
:100F20000C8C02C0880F991F0A94E2F7482B40836B
:100F3000EE89FF894081C9010D8C02C0880F991F7D
:100F40000A94E2F7482B4083EE89FF894081C9016A
:100F50000E8C02C0880F991F0A94E2F7482B408339
:100F6000EE89FF8980810F8C02C0220F331F0A9403
:100F7000E2F7209528232083DF91CF911F910F91D5
:100F8000FF90EF90DF90BF90AF900895DC011C962A
:100F9000ED91FC911D97E05CFF4F21913191808193
:100FA0009181281B390B2F733070C9010895DC0122
:100FB0001C96ED91FC911D97E05CFF4F20813181E3
:100FC000E054F040DF01AE5BBF4F8D919C911197D3
:100FD0002817390719F42FEF3FEF07C08D919C9127
:100FE000E80FF91F8081282F30E0C9010895DC0146
:100FF0001C96ED91FC911D97E05CFF4F20813181A3
:10100000E054F040DF01AE5BBF4F8D919C91119792
:101010002817390719F42FEF3FEF10C08D919C91DD
:101020001197E80FF91F20818D919C9111970196DE
:101030008F73907011969C938E9330E0C901089540
:10104000DC0191968C919197882339F05496ED911B
:10105000FC915597808186FFF9CF91961C92089557
:10106000CF93DF93EC01EE85FF85E05CFF4F20819D
:101070003181E054F0402F5F3F4F2F733070DF011C
:10108000AE5BBF4F8D919C91119728173907D1F313
:10109000E05CFF4F80819181E054F040E80FF91F40
:1010A0006083EE85FF85E05CFF4F31832083EE890E
:1010B000FF89208181E090E00F8C02C0880F991F8A
:1010C0000A94E2F7282B208381E089A3EC89FD892B
:1010D00080818064808381E090E0DF91CF910895EA
:1010E000109213021092120288EE93E0A0E0B0E09A
:1010F0008093140290931502A0931602B0931702E6
:101100008CE191E0909311028093100288E891E0C5
:1011100090931D0280931C028CEC91E090931F022F
:1011200080931E0285EC90E0909321028093200230
:1011300084EC90E0909323028093220280EC90E074
:10114000909325028093240281EC90E090932702F3
:101150008093260282EC90E09093290280932802EB
:1011600086EC90E090932B0280932A0284E0809397
:101170002C0283E080932D0287E080932E0285E08D
:1011800080932F0281E0809330020895CF93DF9304
:101190000E944F090E942403C1EFD6E00E94E90299
:1011A0002097E1F30E94F106F9CFCF92DF92EF9200
:1011B000FF920F931F93CF93DF937C016B018A0102
:1011C000C0E0D0E00FC0D6016D916D01D701ED9167
:1011D000FC910190F081E02DC7010995C80FD91F3E
:1011E000015010400115110571F7CE01DF91CF912B
:1011F0001F910F91FF90EF90DF90CF900895DC0149
:10120000ED91FC910190F081E02D099508951F92D8
:101210000F920FB60F9211242F933F938F939F93AA
:10122000AF93BF938091360290913702A09138021C
:10123000B091390230913A020196A11DB11D232FC0
:101240002D5F2D3720F02D570196A11DB11D209344
:101250003A028093360290933702A0933802B093FB
:1012600039028091320290913302A0913402B09100
:1012700035020196A11DB11D809332029093330275
:10128000A0933402B0933502BF91AF919F918F919B
:101290003F912F910F900FBE0F901F90189578944B
:1012A00084B5826084BD84B5816084BD85B582606B
:1012B00085BD85B5816085BDEEE6F0E08081816009
:1012C0008083E1E8F0E01082808182608083808109
:1012D00081608083E0E8F0E0808181608083E1EBE1
:1012E000F0E0808184608083E0EBF0E080818160C9
:1012F0008083EAE7F0E0808184608083808182607F
:101300008083808181608083808180688083109267
:10131000C1000895CF93DF93482F50E0CA018A5C43
:101320009E4FFC0134914E5D5E4FFA0184918823FB
:1013300069F190E0880F991FFC01EC5FFE4FA591C9
:10134000B491FC01E25FFE4FC591D491662351F444
:101350002FB7F8948C91932F909589238C93888143
:1013600089230BC0623061F42FB7F8948C91932FCE
:10137000909589238C938881832B88832FBF06C007
:101380009FB7F8948C91832B8C939FBFDF91CF9163
:101390000895833071F0843028F48130A1F08230D8
:1013A00021F514C08630B1F08730D1F08430E9F4F3
:1013B00004C0809180008F7703C0809180008F7D72
:1013C00080938000089584B58F7702C084B58F7DA7
:1013D00084BD08958091B0008F778093B000089508
:1013E0008091B0008F7D8093B0000895FF920F939D
:1013F0001F93F62E482F50E0CA01865B9E4FFC01DA
:101400002491CA018A5C9E4FFC0114914E5D5E4F8F
:10141000FA0104910023C9F0222319F0822F0E94BF
:10142000C909E02FF0E0EE0FFF1FE25FFE4FA5912C
:10143000B4919FB7F894FF2021F48C9110958123EB
:1014400002C08C91812B8C939FBF1F910F91FF90B5
:1014500008950F931F93CF93DF93EC018B016F5F80
:101460007F4F888199810E94DE01009711F480E00E
:1014700005C0998388831B830A8381E0DF91CF9124
:101480001F910F910895CF93DF93EC01888199818B
:10149000892B29F08A819B818617970760F4CE01FA
:1014A0000E94290A882341F08C819D81892B19F49F
:1014B000E881F981108281E0DF91CF910895CF9387
:1014C000DF93EC0188819981009711F00E948601D9
:1014D000198218821D821C821B821A82DF91CF9191
:1014E0000895EF92FF920F931F93CF93DF93EC0138
:1014F0007B018A01BA010E94430A882321F4CE01AC
:101500000E945F0A07C01D830C8388819981B701FF
:101510000E94BC02CE01DF91CF911F910F91FF90ED
:10152000EF900895CF93DF93EC01198218821B820C
:101530001A821D821C821E826115710551F0DB0129
:101540000D900020E9F71197A61BB70BAD010E9483
:10155000710ADF91CF910895FC01808191810E94F1
:101560008601089597FB092E07260AD077FD04D03F
:101570002ED006D000201AF4709561957F4F089503
:10158000F6F7909581959F4F0895A1E21A2EAA1B18
:10159000BB1BFD010DC0AA1FBB1FEE1FFF1FA21723
:1015A000B307E407F50720F0A21BB30BE40BF50B20
:1015B000661F771F881F991F1A9469F760957095A9
:1015C000809590959B01AC01BD01CF010895AA1BA8
:1015D000BB1B51E107C0AA1FBB1FA617B70710F01E
:1015E000A61BB70B881F991F5A95A9F78095909550
:1015F000BC01CD010895EE0FFF1F0590F491E02D81
:1016000009942F923F924F925F926F927F928F92A6
:101610009F92AF92BF92CF92DF92EF92FF920F9381
:101620001F93CF93DF93CDB7DEB7CA1BDB0B0FB68B
:10163000F894DEBF0FBECDBF09942A883988488848
:101640005F846E847D848C849B84AA84B984C884DE
:10165000DF80EE80FD800C811B81AA81B981CE0FD5
:10166000D11D0FB6F894DEBF0FBECDBFED010895BA
:1016700011E0C2E6D1E004C0FE010E94FD0A2296FC
:0A168000C436D107C9F7F894FFCF74
:10168A002E0020003F020000000000005205D5088D
:10169A003805170515060406000000003008D508AD
:0816AA00C607F707D707200867
:00000001FF
