:100000000C94B2000C94DA000C94DA000C94D40531
:100010000C94F8050C941C060C94DA000C94DA008D
:100020000C94DA000C94DA000C94DA000C94DA00E8
:100030000C94DA000C94DA000C94DA000C94DA00D8
:100040000C94180D0C94DA000C94C6080C94140946
:100050000C94DA000C94DA000C94DA000C94DA00B8
:100060000C94DA000C94DA0000C2010001001100C7
:1000700011000C0000E100000A002500250021000D
:10008000009600001900390039003600127A00008D
:100090001F004600460044008070000022004D0012
:1000A0004D004A00004B00003600750075007200DC
:1000B000403800004A009C009C0099008025000008
:1000C0007200EC00EC00E900C0120000E900DA0167
:1000D000DA01D70160090000D701B603B603B30304
:1000E000B0040000B3036E076E076B0758020000F0
:1000F0006E07DC0EDC0ED80E2C010000DC0EC11DDC
:10010000C11DBE1D00000000240027002A000000C1
:100110000000250028002B0000000000230026001E
:10012000290004040404040404040202020202027A
:1001300003030303030301020408102040800102AB
:10014000040810200102040810200000000700022B
:100150000100000304060000000000000000F4029B
:10016000800AED0211241FBECFEFD8E0DEBFCDBF65
:1001700011E0A0E0B1E0E2EDF1E202C005900D92E5
:10018000A838B107D9F712E0A8E8B1E001C01D9284
:10019000A93AB107E1F711E0C2E6D1E004C0229725
:1001A000FE010E949610CE35D107C9F70E94D60AEB
:1001B0000C94DC100C940000CF93DF93BC018230D0
:1001C000910510F462E070E0A091A702B091A8023E
:1001D000ED01E0E0F0E040E050E021C0888199814D
:1001E0008617970769F48A819B81309719F093836A
:1001F000828304C09093A8028093A702FE0134C0BA
:100200006817790738F44115510519F084179507D7
:1002100008F4AC01FE018A819B819C01E9012097D1
:10022000E9F641155105A9F1CA01861B970B049700
:1002300008F4BA01E0E0F0E02AC08D919C9111979A
:1002400084179507F9F46417750781F412968D9158
:100250009C911397309719F09383828304C09093F5
:10026000A8028093A702FD0132964CC0CA01861BEA
:10027000970BFD01E80FF91F6193719302978D931E
:100280009C9340C0FD01828193819C01D90110970C
:10029000A1F68091A5029091A602892B41F480914C
:1002A0005C0190915D019093A6028093A50240911C
:1002B0005E0150915F014115510541F44DB75EB7A4
:1002C00080915A0190915B01481B590B2091A50226
:1002D0003091A602CA01821B930B8617970780F004
:1002E000AB014E5F5F4F8417950750F0420F531FCD
:1002F0005093A6024093A502F9016193719302C045
:10030000E0E0F0E0CF01DF91CF910895CF93DF934C
:10031000009709F450C0EC0122971B821A82A09129
:10032000A702B091A802109709F140E050E0AC1785
:10033000BD0708F1BB83AA83FE0121913191E20F31
:10034000F31FAE17BF0779F48D919C911197280F79
:10035000391F2E5F3F4F3983288312968D919C91D0
:1003600013979B838A834115510571F4D093A8029A
:10037000C093A70220C012968D919C911397AD0156
:10038000009711F0DC01D3CFFA01D383C28321910E
:100390003191E20FF31FCE17DF0769F4888199814D
:1003A000280F391F2E5F3F4FFA01318320838A8146
:1003B0009B8193838283DF91CF910895A0E0B0E089
:1003C000E4EEF1E00C94A7106C01009729F4CB0146
:1003D0000E94DC006C01C1C08EEF882E8FEF982E3A
:1003E0008C0C9D1C8601060F171F0815190508F4B3
:1003F000B2C0F401A081B181A617B707B8F0A5304B
:10040000B10508F4AAC0CD0104978617970708F430
:10041000A4C01297A61BB70BF801A193B193D40106
:100420006D937C93CF010E94860197C07B01EA1AED
:10043000FB0AEEEFFFEFEE0EFF1E36016A0E7B1E8B
:10044000C091A702D091A80244245524AA24BB2419
:100450004AC0C615D705E1F5488159814E155F059B
:10046000B8F1CA0104978E159F05B0F41296A40F37
:10047000B51FF401B183A0832A813B81411451044B
:1004800031F0D20113963C932E93129766C03093AD
:10049000A8022093A70261C08A819B81F8019383FF
:1004A0008283425050404E195F095183408341146A
:1004B000510431F0D20113961C930E93129704C08D
:1004C0001093A8020093A702F4017183608345C0D2
:1004D00088819981A816B90608F45C012E018A81E9
:1004E0009B819C01E901209709F0B3CF8091A5027F
:1004F0009091A60286159705E9F4A616B706D0F4E2
:1005000020915E0130915F012115310541F42DB735
:100510003EB780915A0190915B01281B390B02175D
:100520001307C8F41093A6020093A502D4016D939B
:100530007C9313C0CB010E94DC00EC01009759F0C2
:10054000F40140815181B6010E94B302C6010E94AC
:1005500086016E0102C0CC24DD24C601CDB7DEB712
:10056000E0E10C94C310FB01DC0102C001900D928C
:1005700041505040D8F70895FB01DC018D91019066
:1005800080190110D9F3990B0895FB01DC0101904A
:100590000D920020E1F708958130910581F46F5F9D
:1005A0007F4FD1F488E891E063E042E00E942805A3
:1005B00087EA91E060E071E00E94B10F0895892B15
:1005C00059F46F5F7F4F41F487EA91E00E94201059
:1005D00088E891E00E94F904089580E090E06FEFD0
:1005E0007FEF0E94CC02089581E090E06FEF7FEFF3
:1005F0000E94CC020895DF92EF92FF920F931F9317
:10060000DF93CF93CDB7DEB72E970FB6F894DEBF4A
:100610000FBECDBF8AE792E040E855E260E070E0AF
:100620000E944F098E010F5F1F4FC80161E071E00A
:100630000E94B10F88E0E82EF12CEC0EFD1EC701E0
:1006400064E071E00E94B10F88E891E0B801A70171
:1006500023E030E00E948C04D82EC7010E942010B5
:10066000C8010E942010DD2029F08AE792E062E1B3
:1006700071E004C08AE792E066E271E00E94110C2A
:100680002E960FB6F894DEBF0FBECDBFCF91DF918F
:100690001F910F91FF90EF90DF90089587EA91E00E
:1006A00060E071E00E94E50F8AE792E00E94300A64
:1006B0000895EF92FF920F931F93DF93CF93CDB7DF
:1006C000DEB765970FB6F894DEBF0FBECDBF8AE7E1
:1006D00092E00E94D60918161906A4F58AE792E05E
:1006E0000E94070A8C0187EA91E0602F0E94390F6F
:1006F0000132110549F48E010F5F1F4FC80168E8F0
:1007000071E00E944A0419C00A301105D9F48E0123
:10071000085F1F4FC80167EA71E00E9415109FE053
:10072000E92EF12CEC0EFD1EC70168E871E0A8016E
:100730000E943504C7010E942010C8010E942010A9
:100740000E944E0365960FB6F894DEBF0FBECDBF74
:10075000CF91DF911F910F91FF90EF900895EF924D
:10076000FF920F931F93DF93CF93CDB7DEB72797F9
:100770000FB6F894DEBF0FBECDBF8B018AE792E0C3
:100780000E94570C7E010894E11CF11CC7016CE328
:1007900071E00E94B10FC801B7010E94B40E182F7A
:1007A000C7010E942010111111E0812F27960FB66A
:1007B000F894DEBF0FBECDBFCF91DF911F910F9197
:1007C000FF90EF900895CF92DF92EF92FF920F93F8
:1007D0001F93DF93CF93CDB7DEB727970FB6F8946B
:1007E000DEBF0FBECDBFF82EE92E6B016FE371E0C7
:1007F0000E94B10F86010E5F1F4F04C08F2D9E2DEA
:100800000E94390FC8010E942707BC01181619065B
:10081000ACF38F2D9E2D0E94590E8E010F5F1F4F3E
:10082000C8016F2D7E2D0E941510C601B8010E94CF
:10083000AF03682F8AE792E070E04AE050E00E9440
:10084000F20BC8010E9420108F2D9E2D27960FB607
:10085000F894DEBF0FBECDBFCF91DF911F910F91F6
:10086000FF90EF90DF90CF900895EF92FF920F935B
:100870001F937C018B01CB010296BA010E94240CCC
:10088000C701B8010E94E303C7011F910F91FF90B8
:10089000EF900895AF92BF92CF92DF92EF92FF92C6
:1008A0000F931F93DF93CF93CDB7DEB72E970FB67D
:1008B000F894DEBF0FBECDBF5C016B018E010F5FF0
:1008C0001F4FC80160E471E00E94B10F88E0E82E7C
:1008D000F12CEC0EFD1EC701B601A8010E943504E3
:1008E000C7010E942010C8010E942010C501B60156
:1008F0000E94E303C5012E960FB6F894DEBF0FBE2B
:10090000CDBFCF91DF911F910F91FF90EF90DF90BE
:10091000CF90BF90AF9008958F929F92AF92BF9269
:10092000CF92DF92EF92FF920F931F93DF93CF93BB
:10093000CDB7DEB72E970FB6F894DEBF0FBECDBF92
:100940005C018B016A01490128E0E22EF12CEC0EDA
:10095000FD1EC70169E471E00E94CB0FC701B80119
:100960000E947A0F64E571E00E945E0FB6010E945A
:100970007A0F68E571E00E945E0FBC018E010F5F87
:100980001F4FC8010E941510C7010E94261092E057
:10099000C92ED12CCA0CDB1CEE24FF24C601B801E1
:1009A0000E94240C0894E11CF11CC6016CE371E068
:1009B0000E94130D882391F78E149F047CF381E02D
:1009C000F501868FC8010E94201081E02E960FB697
:1009D000F894DEBF0FBECDBFCF91DF911F910F9175
:1009E000FF90EF90DF90CF90BF90AF909F908F904F
:1009F00008950F931F938C0184E691E0F801819391
:100A000091938F01CF010E94E906C8010E941E0741
:100A10001F910F910895EF92FF920F931F93F82E5D
:100A2000E92E082F192F84E691E0F8018193919324
:100A30008F01CF010E94E906C8010E941E078F2D79
:100A40009E2D0E94E50A1F910F91FF90EF9008954F
:100A5000EF92FF920F931F937C0184E691E0F701E0
:100A6000819391938F01CF0120E00E949708C801E4
:100A700040E855E260E070E00E944006F701168E03
:100A80001F910F91FF90EF900895FC018091AE01AE
:100A90009091AF018E179F0711F480E00895838D28
:100AA0008E7F838F9FB7F8941092F0018091F001B0
:100AB0008093F101F093AF01E093AE019FBF81E01D
:100AC00008950F931F93CF93DF93FC01838DA68529
:100AD000B7859585082F027081FF05C08C91892309
:100AE00009F454C004C08C91892309F04FC0838954
:100AF000948920E001972FEF8F3F9207D9F7C5899E
:100B0000D689A685B785758560E031E040E050E084
:100B100010E0CE01212F01972FEF8F3F9207D9F7D9
:100B20008C91872311F0632B03C0832F809568235A
:100B3000330F4F5F5F4F4830510559F78789908DCC
:100B400020E001972FEF8F3F9207D9F701116095B1
:100B50008091F0012091F10190E001968F739070E7
:100B600030E08217930779F0E091F001F0E0E05572
:100B7000FE4F60838091F00190E001968F7390703A
:100B80008093F00103C0838D8160838FDF91CF91CB
:100B90001F910F9108958091AE019091AF01009740
:100BA00011F00E94610508951F920F920FB60F92E7
:100BB00011242F933F934F935F936F937F938F9362
:100BC0009F93AF93BF93EF93FF930E94CB05FF9149
:100BD000EF91BF91AF919F918F917F916F915F91B5
:100BE0004F913F912F910F900FBE0F901F9018952E
:100BF0001F920F920FB60F9211242F933F934F9392
:100C00005F936F937F938F939F93AF93BF93EF9374
:100C1000FF930E94CB05FF91EF91BF91AF919F9100
:100C20008F917F916F915F914F913F912F910F9095
:100C30000FBE0F901F9018951F920F920FB60F9234
:100C400011242F933F934F935F936F937F938F93D1
:100C50009F93AF93BF93EF93FF930E94CB05FF91B8
:100C6000EF91BF91AF919F918F917F916F915F9124
:100C70004F913F912F910F900FBE0F901F9018959D
:100C8000CF92DF92EF92FF920F931F93CF93DF9358
:100C9000EC017A018B011A8E198E188E1F8A1E8A1A
:100CA0001D8A1C8A1B8A20E030E06901CC0CDD1C07
:100CB000C20ED31EB601660F771F660F771FAB01FA
:100CC00048595F4FFA0185919591A591B4918E1580
:100CD0009F05A007B107E9F4FB01E459FF4F859197
:100CE00094919C8B8B8BFB01E259FF4F85919491E2
:100CF0009E8B8D8BFB01E059FF4F85919491988FCE
:100D00008F8BFB01EE58FF4F859194919A8F898FBD
:100D100006C02F5F3F4F2D30310509F0C6CF8F89B8
:100D2000988D892B09F449C04C85463108F03DC0A7
:100D300090916800483010F484E005C04E3010F007
:100D400082E001C081E0892B80936800483028F45C
:100D5000EDE6F0E0ADE6B0E00BC04E3028F0ECE69A
:100D6000F0E0ACE6B0E004C0EBE6F0E0ABE6B0E00B
:100D70005081483040F481E090E002C0880F991F14
:100D80004A95E2F710C0242F30E04E3018F4285076
:100D9000304002C02E50304081E090E002C0880F09
:100DA000991F2A95E2F7852B8C93898D9A8D20E0E7
:100DB00001972FEF8F3F9207D9F7CE010E9445058B
:100DC000DF91CF911F910F91FF90EF90DF90CF9027
:100DD0000895FC014485463180F5483028F4EDE65D
:100DE000F0E0ADE6B0E00BC04E3028F4EBE6F0E00A
:100DF000ABE6B0E004C0ECE6F0E0ACE6B0E0508179
:100E0000483040F481E090E002C0880F991F4A9575
:100E1000E2F710C0242F30E04E3018F42850304054
:100E200002C02E50304081E090E002C0880F991F30
:100E30002A95E2F7809585238C930895FC018CE632
:100E400091E091838083CF010E94E906089520916B
:100E5000AE013091AF012817390731F49091F101BB
:100E60008091F001981719F42FEF3FEF0FC0E09138
:100E7000F101F0E0E055FE4F20818091F10190E01A
:100E800001968F7390708093F10130E0C90108954D
:100E90002091AE013091AF012817390719F020E0F9
:100EA00030E00EC08091F0012091F10190E0805C73
:100EB0009F4F821B910960E470E00E944B109C01DF
:100EC000C90108950F931F93DC0159968D919C9150
:100ED0005A97892B49F481E090E013969C938E9366
:100EE000129720E030E097C00FB7F8945B968C9192
:100EF0005B975196ED91FC91529750962C9150979B
:100F000081FF8DC08081822B808359968D919C9129
:100F10005A97059620E001972FEF8F3F9207D9F758
:100F20005B968C915B9781FF35C031E040E050E0EB
:100F300070E010E0832F90E0862397235196ED9187
:100F4000FC91529750962C915097892B29F08081D3
:100F500020952823208303C08081822B808359968B
:100F60008D919C915A97212F01972FEF8F3F9207D8
:100F7000D9F7330F4F5F5F4F48305105D9F651967F
:100F8000ED91FC915297908150968C91509780955D
:100F9000892333C031E040E050E070E010E0832F5F
:100FA00090E0862397235196ED91FC9152975096AD
:100FB0002C915097892B21F08081822B808304C053
:100FC000808120952823208359968D919C915A9752
:100FD000212F01972FEF8F3F9207D9F7330F4F5FE4
:100FE0005F4F48305105D9F65196ED91FC915297DB
:100FF000808150969C915097892B80830FBF599682
:101000008D919C915A9720E001972FEF8F3F920787
:10101000D9F721E030E0C9011F910F910895808137
:1010200020952823208371CF2091AE013091AF010C
:101030002817390749F49FB7F8941092F00180916E
:10104000F0018093F1019FBF08952091AE0130918E
:10105000AF012817390731F49091F1018091F00127
:10106000981719F42FEF3FEF0AC0E091F101F0E07B
:10107000E055FE4F8081282F332727FD3095C90189
:1010800008951F93CF93DF93EC01162F862F60E016
:101090000E94A90D8B8D81FD04C0812F61E00E940B
:1010A000150E1C87212F30E0C9018A5C9E4FFC0180
:1010B00084918D872E5D3E4FF9016491E62FF0E01B
:1010C000EE0FFF1FE85EFE4F859194919F878E87FC
:1010D000DF91CF911F910895FF920F931F938C0181
:1010E000F62E862F61E00E94A90D8F2D61E00E94EF
:1010F000150E8F2D90E0FC01EA5CFE4FE491D801C3
:101100005096EC9350978E5D9E4FFC016491E62FB4
:10111000F0E0EE0FFF1FE25FFE4F85919491529633
:101120009C938E9351971F910F91FF900895FF927A
:101130000F931F938C01F62EFC011382128288EE0E
:1011400093E0A0E0B0E084839583A683B7838CE628
:1011500091E091838083148A138A168A158A108EEF
:10116000178A128E118E838D2170220F8C7F822B15
:10117000838FC801642F0E946C08C8016F2D0E94E4
:1011800041081F910F91FF90089508951F920F92AB
:101190000FB60F9211242F933F934F938F939F93EA
:1011A000EF93FF938091C00082FD1DC04091C60067
:1011B00020913202309133022F5F3F4F2F733070F6
:1011C00080913402909135022817390771F0E0912F
:1011D0003202F0913302EE50FE4F408330933302DF
:1011E0002093320202C08091C600FF91EF919F913F
:1011F0008F914F913F912F910F900FBE0F901F90A5
:101200001895E0918602F0918702E05CFF4F819192
:10121000919120813181821B930B8F739070892B68
:1012200011F00E94C50808951F920F920FB60F92F9
:1012300011242F933F938F939F93EF93FF932091CC
:101240007602309177028091780290917902281786
:10125000390731F48091C1008F7D8093C10014C0A3
:10126000E0917802F0917902EA5CFD4F2081809153
:1012700078029091790201968F7390709093790221
:10128000809378022093C600FF91EF919F918F91F8
:101290003F912F910F900FBE0F901F901895AF9216
:1012A000BF92DF92EF92FF920F931F93CF93DF9342
:1012B000EC017A018B01DD24403081EE580780E09B
:1012C000680780E0780711F0DD24D39491E0A92E1F
:1012D000B12CEC89FD89DD2069F0C50108A002C0B0
:1012E000880F991F0A94E2F7808360E079E08DE32C
:1012F00090E005C0108260E874E88EE190E0A801FB
:1013000097010E945E102150304040405040569559
:1013100047953795279580E12030380720F0DD206C
:1013200011F0DD24D6CFE889F9893083EA89FB8979
:10133000208319A2EE89FF89408121E030E0C901B4
:101340000C8C02C0880F991F0A94E2F7482B408347
:10135000EE89FF894081C9010D8C02C0880F991F59
:101360000A94E2F7482B4083EE89FF894081C90146
:101370000E8C02C0880F991F0A94E2F7482B408315
:10138000EE89FF8980810F8C02C0220F331F0A94DF
:10139000E2F7209528232083DF91CF911F910F91B1
:1013A000FF90EF90DF90BF90AF900895DC011C9606
:1013B000ED91FC911D97E05CFF4F2191319180816F
:1013C0009181281B390B2F733070C9010895DC01FE
:1013D0001C96ED91FC911D97E05CFF4F20813181BF
:1013E000E054F040DF01AE5BBF4F8D919C911197AF
:1013F0002817390719F42FEF3FEF07C08D919C9103
:10140000E80FF91F8081282F30E0C9010895DC0121
:101410001C96ED91FC911D97E05CFF4F208131817E
:10142000E054F040DF01AE5BBF4F8D919C9111976E
:101430002817390719F42FEF3FEF10C08D919C91B9
:101440001197E80FF91F20818D919C9111970196BA
:101450008F73907011969C938E9330E0C90108951C
:10146000DC0191968C919197882339F05496ED91F7
:10147000FC915597808186FFF9CF91961C92089533
:10148000CF93DF93EC01EE85FF85E05CFF4F208179
:101490003181E054F0402F5F3F4F2F733070DF01F8
:1014A000AE5BBF4F8D919C91119728173907D1F3EF
:1014B000E05CFF4F80819181E054F040E80FF91F1C
:1014C0006083EE85FF85E05CFF4F31832083EE89EA
:1014D000FF89208181E090E00F8C02C0880F991F66
:1014E0000A94E2F7282B208381E089A3EC89FD8907
:1014F00080818064808381E090E0DF91CF910895C6
:1015000010927D0210927C0288EE93E0A0E0B0E0A1
:1015100080937E0290937F02A0938002B093810219
:101520008CE791E090937B0280937A0282EF91E0C6
:10153000909387028093860286E392E090938902DB
:101540008093880285EC90E090938B0280938A02CE
:1015500084EC90E090938D0280938C0280EC90E07C
:1015600090938F0280938E0281EC90E09093910291
:101570008093900282EC90E0909393028093920289
:1015800086EC90E0909395028093940284E080939F
:10159000960283E08093970287E08093980285E02B
:1015A0008093990281E080939A020895CF93DF930C
:1015B0000E946E0D0E94FB02C1E0D9E00E94590317
:1015C0002097E1F30E940109F9CF0E948601089556
:1015D000CF92DF92EF92FF920F931F93CF93DF93FF
:1015E0007C016B018A01C0E0D0E00FC0D6016D9193
:1015F0006D01D701ED91FC910190F081E02DC701C3
:101600000995C80FD91F015010400115110571F738
:10161000CE01DF91CF911F910F91FF90EF90DF905E
:10162000CF900895EF92FF920F931F938C01DC01EE
:10163000ED91FC910190F081E02D6DE009957C0128
:10164000D801ED91FC910190F081E02DC8016AE094
:1016500009959C012E0D3F1DC9011F910F91FF900F
:10166000EF900895CF93DF93EC016115710519F4A4
:1016700020E030E00FC0DB010D900020E9F711976A
:10168000A61BB70BE881F9810280F381E02DAD0143
:1016900009959C01C901DF91CF9108954F925F9206
:1016A0007F928F929F92AF92BF92CF92DF92EF92F2
:1016B000FF920F931F93DF93CF93CDB7DEB7A19720
:1016C0000FB6F894DEBF0FBECDBF2C01742ECB0138
:1016D000223008F42AE019A231E2C32ED12CCC0E1C
:1016E000DD1E822E9924AA24BB24672D752FA50107
:1016F00094010E945E1079018A01C801B701A50119
:1017000094010E942C10472D461B0894C108D10853
:101710004A3014F4405D01C0495CF6014083E11495
:10172000F1040105110521F07E2C5F2DC801DDCFEC
:10173000C201B6010E94320BA1960FB6F894DEBF2B
:101740000FBECDBFCF91DF911F910F91FF90EF9012
:10175000DF90CF90BF90AF909F908F907F905F90E1
:101760004F900895CF92DF92EF92FF920F931F93C5
:10177000CF93DF93EC016A017B012115310541F420
:10178000E881F9810190F081E02D642F09951FC057
:101790002A303105D1F477FF17C0E881F981019033
:1017A000F081E02D6DE209958C0144275527BA019F
:1017B0004C195D096E097F09CE012AE00E944E0B8B
:1017C0009801280F391F04C02AE00E944E0B9C018B
:1017D000C901DF91CF911F910F91FF90EF90DF90A2
:1017E000CF900895CF92DF92EF92FF920F931F93C5
:1017F0006C017B019A010027F7FC0095102FB801BE
:10180000A7010E94B20B8C01C6010E94120B080FA7
:10181000191FC8011F910F91FF90EF90DF90CF909B
:101820000895EF92FF920F931F937C010E94320B59
:101830008C01C7010E94120B080F191FC8011F91CC
:101840000F91FF90EF900895AF92BF92CF92DF92E9
:10185000EF92FF920F931F93CF93DF935C016B0185
:10186000EE24FF24C0E0D0E010C0D501ED91FC9142
:1018700000811181C601BE010E94480E682FC5017A
:10188000F8010995E80EF91E2196F60184819581EB
:10189000C817D90750F3C701DF91CF911F910F915E
:1018A000FF90EF90DF90CF90BF90AF900895EF92B0
:1018B000FF920F931F937C010E94240C8C01C7019F
:1018C0000E94120B9C01200F311FC9011F910F9123
:1018D000FF90EF900895CF93DF93EC010E94600D8D
:1018E000688779878A879B87E881F9810680F781F5
:1018F000E02DCE0109959C0197FF15C00E94600D57
:10190000288539854A855B85621B730B840B950B93
:101910002C813D814E815F81621773078407950793
:1019200018F32FEF3FEFC901DF91CF9108956F9228
:101930007F928F929F92AF92BF92CF92DF92EF925F
:10194000FF920F931F93CF93DF933C017B014A01DA
:1019500059016801FB0180818823D1F1C0E0D0E00A
:101960002DC0F701EC0FFD1F8081992787FD909511
:101970002817390711F0C0E0D0E0F701EC0FFD1F88
:101980008081992787FD90952817390721F42196A2
:10199000C815D905E8F4C114D10481F0F501E00FB0
:1019A000F11F8081992787FD90952817390731F419
:1019B0000F5F1F4F0C151D0518F00CC000E010E064
:1019C000C3010E946B0C9C011816190654F202C048
:1019D00081E001C080E0DF91CF911F910F91FF90D6
:1019E000EF90DF90CF90BF90AF909F908F907F90BF
:1019F0006F9008950F931F939A01DB010D900020C3
:101A0000E9F7AD0141505040461B570BD9010D90ED
:101A10000020E9F71197A21BB30B8D010E94970CD0
:101A20001F910F91089540E050E00E94FA0C089534
:101A30001F920F920FB60F9211242F933F938F9303
:101A40009F93AF93BF938091A0029091A102A09128
:101A5000A202B091A3023091A4020196A11DB11D72
:101A6000232F2D5F2D3720F02D570196A11DB11D7D
:101A70002093A4028093A0029093A102A093A202BB
:101A8000B093A30280919C0290919D02A0919E022E
:101A9000B0919F020196A11DB11D80939C0290936D
:101AA0009D02A0939E02B0939F02BF91AF919F9120
:101AB0008F913F912F910F900FBE0F901F9018950F
:101AC0008FB7F8942091A0023091A1024091A20218
:101AD0005091A3028FBFB901CA010895789484B5CB
:101AE000826084BD84B5816084BD85B5826085BD1A
:101AF00085B5816085BDEEE6F0E080818160808300
:101B0000E1E8F0E0108280818260808380818160E2
:101B10008083E0E8F0E0808181608083E1EBF0E0A9
:101B2000808184608083E0EBF0E08081816080834D
:101B3000EAE7F0E080818460808380818260808336
:101B40008081816080838081806880831092C10061
:101B50000895CF93DF93482F50E0CA018A5C9E4FCF
:101B6000FC0134914E5D5E4FFA018491882369F146
:101B700090E0880F991FFC01EC5FFE4FA591B49196
:101B8000FC01E25FFE4FC591D491662351F42FB75B
:101B9000F8948C91932F909589238C938881892335
:101BA0000BC0623061F42FB7F8948C91932F90950D
:101BB00089238C938881832B88832FBF06C09FB78E
:101BC000F8948C91832B8C939FBFDF91CF910895D4
:101BD000833071F0843028F48130A1F0823021F517
:101BE00014C08630B1F08730D1F08430E9F404C0FD
:101BF000809180008F7703C0809180008F7D8093DB
:101C00008000089584B58F7702C084B58F7D84BD30
:101C100008958091B0008F778093B00008958091EF
:101C2000B0008F7D8093B0000895FF920F931F93B3
:101C3000F62E482F50E0CA01865B9E4FFC0124918E
:101C4000CA018A5C9E4FFC0114914E5D5E4FFA0101
:101C500004910023C9F0222319F0822F0E94E80D7D
:101C6000E02FF0E0EE0FFF1FE25FFE4FA591B49171
:101C70009FB7F894FF2021F48C911095812302C026
:101C80008C91812B8C939FBF1F910F91FF90089592
:101C9000FC01848195816817790748F40190F081EF
:101CA000E02D309721F0E60FF71F8081089580E046
:101CB0000895CF92DF92EF92FF920F931F93CF93ED
:101CC000DF936C01DC01ED90FC901197E114F104BD
:101CD00009F441C01496CD91DC9115972097D9F164
:101CE000870102C00F5F1F4FF8018081992787FD90
:101CF00090950E949A10892BA9F72197CE0DDF1D90
:101D000001C021978881992787FD90950E949A109C
:101D1000892B19F0C017D107A0F7FE013196E01BFF
:101D2000F10BD6011596FC93EE9314972D913C91EF
:101D30002017310728F4C901B801AF010E94B3028E
:101D4000D601ED91FC91119714968D919C91159768
:101D5000E80FF91F1082DF91CF911F910F91FF9033
:101D6000EF90DF90CF900895FC01DB012481358155
:101D700014964D915C91159724173507A8F0808132
:101D80009181009789F06D917C916115710561F0E9
:101D9000241B350B820F931F0E94BC029C0180E024
:101DA000232B19F481E0089580E008950F931F9389
:101DB000CF93DF93EC018B016F5F7F4F8881998117
:101DC0000E94DE01009711F480E005C099838883AA
:101DD0001B830A8381E0DF91CF911F910F910895BA
:101DE000CF93DF93EC0188819981892B29F08A8137
:101DF0009B818617970760F4CE010E94D60E882338
:101E000041F08C819D81892B19F4E881F981108240
:101E100081E0DF91CF910895EF92FF920F931F938E
:101E2000CF93DF93EC017B016C817D81E114F104A0
:101E3000C1F04115510599F08A01060F171FB8012D
:101E40000E94F00E882369F0888199812C813D8160
:101E5000820F931FB7010E94C5021D830C8381E08E
:101E600001C080E0DF91CF911F910F91FF90EF9023
:101E70000895DF93CF9300D0CDB7DEB769831A8280
:101E8000BE016F5F7F4F41E050E00E940C0F0F904A
:101E90000F90CF91DF910895CF93DF93EC0188816C
:101EA0009981009711F00E948601198218821D8283
:101EB0001C821B821A82DF91CF9108950F931F938A
:101EC000182F092F6115710561F0DB010D900020BD
:101ED000E9F71197A61BB70BAD010E940C0F8823E1
:101EE00021F4812F902F0E944C0F812F902F1F9152
:101EF0000F9108950F931F93182F092FFB016081F5
:101F00007181448155810E940C0F882321F4812F17
:101F1000902F0E944C0F812F902F1F910F910895A9
:101F2000EF92FF920F931F93CF93DF93EC017B010E
:101F30008A01BA010E94F00E882321F4CE010E948A
:101F40004C0F07C01D830C8388819981B7010E94C3
:101F5000C502CE01DF91CF911F910F91FF90EF90BD
:101F60000895CF93DF93EC01198218821B821A82A5
:101F70001D821C821E826115710551F0DB010D90DE
:101F80000020E9F71197A61BB70BAD010E94900F37
:101F9000DF91CF910895CF93DF93EC0119821882DE
:101FA0001B821A821D821C821E826115710551F0EE
:101FB000DB010D900020E9F71197A61BB70BAD01CF
:101FC0000E94900FDF91CF9108950F931F93182FC8
:101FD000092F6115710559F0DB010D900020E9F71B
:101FE0001197A61BB70BAD010E94900F02C00E9473
:101FF0004C0F812F902F1F910F910895CF93DF9356
:10200000EC01FB018617970761F060817181611512
:10201000710529F0448155810E94900F02C00E94F1
:102020004C0FCE01DF91CF910895FC0111821082F7
:10203000138212821582148216820E94FE0F089566
:10204000FC01808191810E9486010895FC018081BC
:1020500091810E9486010895629FD001739FF001D3
:10206000829FE00DF11D649FE00DF11D929FF00D28
:10207000839FF00D749FF00D659FF00D9927729F5F
:10208000B00DE11DF91F639FB00DE11DF91FBD01EA
:10209000CF011124089597FB092E07260AD077FD5A
:1020A00004D02ED006D000201AF4709561957F4F91
:1020B0000895F6F7909581959F4F0895A1E21A2E05
:1020C000AA1BBB1BFD010DC0AA1FBB1FEE1FFF1FDC
:1020D000A217B307E407F50720F0A21BB30BE40B2C
:1020E000F50B661F771F881F991F1A9469F7609573
:1020F0007095809590959B01AC01BD01CF0108952D
:10210000AA1BBB1B51E107C0AA1FBB1FA617B7071D
:1021100010F0A61BB70B881F991F5A95A9F7809539
:102120009095BC01CD010895EE0FFF1F0590F4912D
:10213000E02D0994911106C0803219F08950855024
:10214000D0F708959927882708952F923F924F92AC
:102150005F926F927F928F929F92AF92BF92CF9237
:10216000DF92EF92FF920F931F93CF93DF93CDB740
:10217000DEB7CA1BDB0B0FB6F894DEBF0FBECDBFB8
:1021800009942A88398848885F846E847D848C8489
:102190009B84AA84B984C884DF80EE80FD800C8192
:1021A0001B81AA81B981CE0FD11D0FB6F894DEBF75
:1021B0000FBECDBFED01089511E0C2E6D1E004C02D
:1021C000FE010E9496102296C436D107C9F7F894F2
:0221D000FFCF3F
:1021D200005F5F006472616361656E616472616376
:1021E2006F0057696669207374617475732E2E2EA1
:1021F2002E204F4B2E0057696669207374617475E7
:10220200732E2E2E2E204641494C2E004F4B00009D
:1022120041542B43494653520041542B43574A41A0
:10222200503D2200222C220022002000A9020000A0
:1022320000000000F9040B05000000006207E80A34
:10224200480727072508140800000000400AE80A8A
:08225200D609070AE709300A6A
:00000001FF
