:100000000C94B2000C94DA000C94DA000C944006C4
:100010000C9464060C9488060C94DA000C94DA00B4
:100020000C94DA000C94DA000C94DA000C94DA00E8
:100030000C94DA000C94DA000C94DA000C94DA00D8
:100040000C94870D0C94DA000C9432090C948009FE
:100050000C94DA000C94DA000C94DA000C94DA00B8
:100060000C94DA000C94DA0000C2010001001100C7
:1000700011000C0000E100000A002500250021000D
:10008000009600001900390039003600127A00008D
:100090001F004600460044008070000022004D0012
:1000A0004D004A00004B00003600750075007200DC
:1000B000403800004A009C009C0099008025000008
:1000C0007200EC00EC00E900C0120000E900DA0167
:1000D000DA01D70160090000D701B603B603B30304
:1000E000B0040000B3036E076E076B0758020000F0
:1000F0006E07DC0EDC0ED80E2C010000DC0EC11DDC
:10010000C11DBE1D00000000240027002A000000C1
:100110000000250028002B0000000000230026001E
:10012000290004040404040404040202020202027A
:1001300003030303030301020408102040800102AB
:10014000040810200102040810200000000700022B
:100150000100000304060000000000000000F4029B
:10016000EC0AED0211241FBECFEFD8E0DEBFCDBFF9
:1001700012E0A0E0B1E0E0EBF2E202C005900D92E7
:10018000A430B107D9F713E0A4E0B2E001C01D929A
:10019000A532B107E1F711E0C2E6D1E004C0229731
:1001A000FE010E940511CE35D107C9F70E94420B0E
:1001B0000C944B110C940000CF93DF93BC01823060
:1001C000910510F462E070E0A0912303B091240344
:1001D000ED01E0E0F0E040E050E021C0888199814D
:1001E0008617970769F48A819B81309719F093836A
:1001F000828304C09093240380932303FE0134C0C0
:100200006817790738F44115510519F084179507D7
:1002100008F4AC01FE018A819B819C01E9012097D1
:10022000E9F641155105A9F1CA01861B970B049700
:1002300008F4BA01E0E0F0E02AC08D919C9111979A
:1002400084179507F9F46417750781F412968D9158
:100250009C911397309719F09383828304C09093F5
:10026000240380932303FD0132964CC0CA01861BF0
:10027000970BFD01E80FF91F6193719302978D931E
:100280009C9340C0FD01828193819C01D90110970C
:10029000A1F68091210390912203892B41F4809152
:1002A000D7019091D801909322038093210340912C
:1002B000D9015091DA014115510541F44DB75EB7AE
:1002C0008091D5019091D601481B590B20912103B3
:1002D00030912203CA01821B930B8617970780F087
:1002E000AB014E5F5F4F8417950750F0420F531FCD
:1002F0005093220340932103F9016193719302C04B
:10030000E0E0F0E0CF01DF91CF910895CF93DF934C
:10031000009709F450C0EC0122971B821A82A09129
:100320002303B0912403109709F140E050E0AC178B
:10033000BD0708F1BB83AA83FE0121913191E20F31
:10034000F31FAE17BF0779F48D919C911197280F79
:10035000391F2E5F3F4F3983288312968D919C91D0
:1003600013979B838A834115510571F4D09324031D
:10037000C093230320C012968D919C911397AD01D9
:10038000009711F0DC01D3CFFA01D383C28321910E
:100390003191E20FF31FCE17DF0769F4888199814D
:1003A000280F391F2E5F3F4FFA01318320838A8146
:1003B0009B8193838283DF91CF910895A0E0B0E089
:1003C000E4EEF1E00C9416116C01009729F4CB01D6
:1003D0000E94DC006C01C1C08EEF882E8FEF982E3A
:1003E0008C0C9D1C8601060F171F0815190508F4B3
:1003F000B2C0F401A081B181A617B707B8F0A5304B
:10040000B10508F4AAC0CD0104978617970708F430
:10041000A4C01297A61BB70BF801A193B193D40106
:100420006D937C93CF010E94860197C07B01EA1AED
:10043000FB0AEEEFFFEFEE0EFF1E36016A0E7B1E8B
:10044000C0912303D091240344245524AA24BB241F
:100450004AC0C615D705E1F5488159814E155F059B
:10046000B8F1CA0104978E159F05B0F41296A40F37
:10047000B51FF401B183A0832A813B81411451044B
:1004800031F0D20113963C932E93129766C03093AD
:1004900024032093230361C08A819B81F801938305
:1004A0008283425050404E195F095183408341146A
:1004B000510431F0D20113961C930E93129704C08D
:1004C0001093240300932303F4017183608345C0D8
:1004D00088819981A816B90608F45C012E018A81E9
:1004E0009B819C01E901209709F0B3CF8091210302
:1004F0009091220386159705E9F4A616B706D0F465
:100500002091D9013091DA012115310541F42DB73F
:100510003EB78091D5019091D601281B390B021767
:100520001307C8F41093220300932103D4016D93A1
:100530007C9313C0CB010E94DC00EC01009759F0C2
:10054000F40140815181B6010E94B302C6010E94AC
:1005500086016E0102C0CC24DD24C601CDB7DEB712
:10056000E0E10C943211FB01DC0102C001900D921C
:1005700041505040D8F70895FB01DC018D91019066
:1005800080190110D9F3990B0895FB01DC0101904A
:100590000D920020E1F708958130910581F46F5F9D
:1005A0007F4FD1F484E092E063E042E00E94940542
:1005B00083E292E060E071E00E9420100895892BB0
:1005C00059F46F5F7F4F41F483E292E00E948F10F5
:1005D00084E092E00E946505089580E090E06FEF6E
:1005E0007FEF0E94CC02089581E090E06FEF7FEFF3
:1005F0000E94CC020895DF92EF92FF920F931F9317
:10060000DF93CF93CDB7DEB72E970FB6F894DEBF4A
:100610000FBECDBF86EF92E040E855E260E070E0AB
:100620000E94BB098E010F5F1F4FC80161E071E09E
:100630000E94201088E0E82EF12CEC0EFD1EC70170
:1006400064E071E00E94201084E092E0B801A7010C
:1006500023E030E00E94F804D82EC7010E948F10DA
:10066000C8010E948F10DD2029F086EF92E062E140
:1006700071E004C086EF92E066E271E00E94800CB7
:100680002E960FB6F894DEBF0FBECDBFCF91DF918F
:100690001F910F91FF90EF90DF90089583E292E019
:1006A00060E071E00E94541086EF92E00E949C0A84
:1006B0000895EF92FF920F931F93DF93CF93CDB7DF
:1006C000DEB72E970FB6F894DEBF0FBECDBF86EF14
:1006D00092E00E94420A181619060CF07BC086EFC1
:1006E00092E00E94730A7C0183E292E06E2D0E94E8
:1006F000A80F81E2E816F104C9F48E010F5F1F4FC5
:10070000C80160E071E00E94201084E092E0B8012E
:100710000E94C504F82E0E944E0386EF92E0B801B5
:100720000E94C60CFF2009F44BC043C084E2E816C7
:10073000F10479F48E010F5F1F4FC80164E072E08D
:100740000E948C0486EF92E0B8010E94C60CC8019A
:100750003FC08AE0E816F104E9F58E010F5F1F4FF4
:10076000C80160E071E00E94201098E0E92EF12CB1
:10077000EC0EFD1EC70163E272E00E94841084E06B
:1007800092E0B701A8010E944A04682F86EF92E028
:1007900070E04AE050E00E945E0CC7010E948F109A
:1007A0000E944E0386EF92E0B8010E94C60C892B8E
:1007B00039F086EF92E06CE371E00E94800C06C095
:1007C00086EF92E060E571E00E947D0CCE0101961B
:1007D0000E948F102E960FB6F894DEBF0FBECDBFCD
:1007E000CF91DF911F910F91FF90EF9008950F939C
:1007F0001F93CF93DF93182F092FEB0169E671E068
:100800000E942010229604C0812F902F0E94A80FD2
:10081000CE010E949307BC0118161906ACF3812F74
:10082000902F0E94C80E812F902FDF91CF911F91A2
:100830000F910895EF92FF920F931F93DF93CF9341
:10084000CDB7DEB727970FB6F894DEBF0FBECDBF8A
:100850008B017E010894E11CF11CC7016AE671E07E
:100860000E942010C801B7010E94230F182FC70152
:100870000E948F10111111E0812F27960FB6F89466
:10088000DEBF0FBECDBFCF91DF911F910F91FF90C3
:10089000EF900895CF92DF92EF92FF920F931F9304
:1008A000DF93CF93CDB7DEB72E970FB6F894DEBFA8
:1008B0000FBECDBF7C016A0102960E94930C8E018F
:1008C0000F5F1F4FC801B7010E94F703C601B801AF
:1008D0000E946D10C8010E948F108E01085F1F4F8B
:1008E000C801B6010E948410C701B8010E941A0411
:1008F000F82EC8010E948F108F2D2E960FB6F894F7
:10090000DEBF0FBECDBFCF91DF911F910F91FF9042
:10091000EF90DF90CF900895CF92DF92EF92FF9209
:100920000F931F93DF93CF93CDB7DEB727970FB603
:10093000F894DEBF0FBECDBFF82EE92E6B0169E63D
:1009400071E00E9420108E010F5F1F4FC8016FEAF7
:1009500071E00E942010C601B8014F2D5E2D0E944B
:100960004A04C8010E948F108F2D9E2D27960FB626
:10097000F894DEBF0FBECDBFCF91DF911F910F91D5
:10098000FF90EF90DF90CF900895CF92DF92EF929B
:10099000FF920F931F93DF93CF93CDB7DEB72797C7
:1009A0000FB6F894DEBF0FBECDBF7C016B018E0188
:1009B0000F5F1F4FC8016BEB71E00E942010C70151
:1009C000B801A6010E944A04F82EC8010E948F10A7
:1009D0008F2D27960FB6F894DEBF0FBECDBFCF91F7
:1009E000DF911F910F91FF90EF90DF90CF900895CE
:1009F0008F929F92AF92BF92CF92DF92EF92FF922F
:100A00000F931F93DF93CF93CDB7DEB72E970FB61B
:100A1000F894DEBF0FBECDBF5C018B016A014901B6
:100A200038E0E32EF12CEC0EFD1EC70164EC71E002
:100A30000E943A10C701B8010E94E90F6FEC71E003
:100A40000E94CD0FB6010E94E90F63ED71E00E9494
:100A5000CD0FBC018E010F5F1F4FC8010E94841093
:100A6000C7010E94951022E0C22ED12CCA0CDB1CBB
:100A7000EE24FF24C601B8010E94930C0894E11CE7
:100A8000F11CC6016AE671E00E94820D882391F78D
:100A90008E149F047CF381E0F501868FC8010E94CB
:100AA0008F1081E02E960FB6F894DEBF0FBECDBF3B
:100AB000CF91DF911F910F91FF90EF90DF90CF903A
:100AC000BF90AF909F908F9008950F931F938C01CC
:100AD0008FED91E0F801819391938F01CF010E94F6
:100AE0005507C8010E948A071F910F910895EF9240
:100AF000FF920F931F93F82EE92E082F192F8FEDD9
:100B000091E0F801819391938F01CF010E945507E5
:100B1000C8010E948A078F2D9E2D0E94510B1F91A4
:100B20000F91FF90EF900895EF92FF920F931F9314
:100B30007C018FED91E0F701819391938F01CF01BB
:100B400020E00E940309C80140E855E260E070E03F
:100B50000E94AC06F701168E1F910F91FF90EF9047
:100B60000895FC0180912A0290912B028E179F0715
:100B700011F480E00895838D8E7F838F9FB7F89462
:100B800010926C0280916C0280936D02F0932B02A4
:100B9000E0932A029FBF81E008950F931F93CF93A4
:100BA000DF93FC01838DA685B7859585082F02709C
:100BB00081FF05C08C91892309F454C004C08C9135
:100BC000892309F04FC08389948920E001972FEF92
:100BD0008F3F9207D9F7C589D689A685B7857585D0
:100BE00060E031E040E050E010E0CE01212F0197BD
:100BF0002FEF8F3F9207D9F78C91872311F0632B4A
:100C000003C0832F80956823330F4F5F5F4F4830B9
:100C1000510559F78789908D20E001972FEF8F3F7D
:100C20009207D9F70111609580916C0220916D02B5
:100C300090E001968F73907030E08217930779F0FF
:100C4000E0916C02F0E0E45DFD4F608380916C0206
:100C500090E001968F73907080936C0203C0838D37
:100C60008160838FDF91CF911F910F9108958091C3
:100C70002A0290912B02009711F00E94CD05089551
:100C80001F920F920FB60F9211242F933F934F9301
:100C90005F936F937F938F939F93AF93BF93EF93E4
:100CA000FF930E943706FF91EF91BF91AF919F9103
:100CB0008F917F916F915F914F913F912F910F9005
:100CC0000FBE0F901F9018951F920F920FB60F92A4
:100CD00011242F933F934F935F936F937F938F9341
:100CE0009F93AF93BF93EF93FF930E943706FF91BB
:100CF000EF91BF91AF919F918F917F916F915F9194
:100D00004F913F912F910F900FBE0F901F9018950C
:100D10001F920F920FB60F9211242F933F934F9370
:100D20005F936F937F938F939F93AF93BF93EF9353
:100D3000FF930E943706FF91EF91BF91AF919F9172
:100D40008F917F916F915F914F913F912F910F9074
:100D50000FBE0F901F901895CF92DF92EF92FF92E7
:100D60000F931F93CF93DF93EC017A018B011A8EBF
:100D7000198E188E1F8A1E8A1D8A1C8A1B8A20E0E3
:100D800030E06901CC0CDD1CC20ED31EB601660F2B
:100D9000771F660F771FAB0148595F4FFA018591A6
:100DA0009591A591B4918E159F05A007B107E9F41F
:100DB000FB01E459FF4F859194919C8B8B8BFB0138
:100DC000E259FF4F859194919E8B8D8BFB01E059E9
:100DD000FF4F85919491988F8F8BFB01EE58FF4FB9
:100DE000859194919A8F898F06C02F5F3F4F2D3048
:100DF000310509F0C6CF8F89988D892B09F449C038
:100E00004C85463108F03DC090916800483010F4A0
:100E100084E005C04E3010F082E001C081E0892BF3
:100E200080936800483028F4EDE6F0E0ADE6B0E0ED
:100E30000BC04E3028F0ECE6F0E0ACE6B0E004C0C9
:100E4000EBE6F0E0ABE6B0E05081483040F481E002
:100E500090E002C0880F991F4A95E2F710C0242F36
:100E600030E04E3018F42850304002C02E50304050
:100E700081E090E002C0880F991F2A95E2F7852B48
:100E80008C93898D9A8D20E001972FEF8F3F9207E9
:100E9000D9F7CE010E94B105DF91CF911F910F913B
:100EA000FF90EF90DF90CF900895FC01448546318C
:100EB00080F5483028F4EDE6F0E0ADE6B0E00BC098
:100EC0004E3028F4EBE6F0E0ABE6B0E004C0ECE630
:100ED000F0E0ACE6B0E05081483040F481E090E0D2
:100EE00002C0880F991F4A95E2F710C0242F30E006
:100EF0004E3018F42850304002C02E50304081E06F
:100F000090E002C0880F991F2A95E2F7809585230B
:100F10008C930895FC0187EE91E091838083CF014B
:100F20000E945507089520912A0230912B0228171C
:100F3000390731F490916D0280916C02981719F481
:100F40002FEF3FEF0FC0E0916D02F0E0E45DFD4F49
:100F5000208180916D0290E001968F739070809354
:100F60006D0230E0C901089520912A0230912B02D0
:100F70002817390719F020E030E00EC080916C028C
:100F800020916D0290E0805C9F4F821B910960E48C
:100F900070E00E94BA109C01C90108950F931F933D
:100FA000DC0159968D919C915A97892B49F481E0E7
:100FB00090E013969C938E93129720E030E097C0B8
:100FC0000FB7F8945B968C915B975196ED91FC91DD
:100FD000529750962C91509781FF8DC08081822B23
:100FE000808359968D919C915A97059620E00197A0
:100FF0002FEF8F3F9207D9F75B968C915B9781FF1C
:1010000035C031E040E050E070E010E0832F90E028
:10101000862397235196ED91FC91529750962C91EF
:101020005097892B29F0808120952823208303C0A5
:101030008081822B808359968D919C915A97212F84
:1010400001972FEF8F3F9207D9F7330F4F5F5F4F15
:1010500048305105D9F65196ED91FC915297908107
:1010600050968C9150978095892333C031E040E0B1
:1010700050E070E010E0832F90E086239723519694
:10108000ED91FC91529750962C915097892B21F01D
:101090008081822B808304C0808120952823208337
:1010A00059968D919C915A97212F01972FEF8F3F41
:1010B0009207D9F7330F4F5F5F4F48305105D9F68C
:1010C0005196ED91FC915297808150969C9150974A
:1010D000892B80830FBF59968D919C915A9720E060
:1010E00001972FEF8F3F9207D9F721E030E0C90138
:1010F0001F910F910895808120952823208371CF1F
:1011000020912A0230912B022817390749F49FB702
:10111000F89410926C0280916C0280936D029FBFD4
:10112000089520912A0230912B022817390731F4B3
:1011300090916D0280916C02981719F42FEF3FEF98
:101140000AC0E0916D02F0E0E45DFD4F8081282F40
:10115000332727FD3095C90108951F93CF93DF935F
:10116000EC01162F862F60E00E94180E8B8D81FDFA
:1011700004C0812F61E00E94840E1C87212F30E083
:10118000C9018A5C9E4FFC0184918D872E5D3E4F84
:10119000F9016491E62FF0E0EE0FFF1FE85EFE4FCD
:1011A000859194919F878E87DF91CF911F910895AC
:1011B000FF920F931F938C01F62E862F61E00E9401
:1011C000180E8F2D61E00E94840E8F2D90E0FC019F
:1011D000EA5CFE4FE491D8015096EC9350978E5DF7
:1011E0009E4FFC016491E62FF0E0EE0FFF1FE25FDF
:1011F000FE4F8591949152969C938E9351971F9197
:101200000F91FF900895FF920F931F938C01F62E7C
:10121000FC011382128288EE93E0A0E0B0E08483A8
:101220009583A683B78387EE91E091838083148AA8
:10123000138A168A158A108E178A128E118E838D44
:101240002170220F8C7F822B838FC801642F0E9414
:10125000D808C8016F2D0E94AD081F910F91FF9013
:10126000089508951F920F920FB60F9211242F9395
:101270003F934F938F939F93EF93FF938091C00081
:1012800082FD1DC04091C6002091AE023091AF0298
:101290002F5F3F4F2F7330708091B0029091B10259
:1012A0002817390771F0E091AE02F091AF02E259D0
:1012B000FD4F40833093AF022093AE0202C0809175
:1012C000C600FF91EF919F918F914F913F912F9188
:1012D0000F900FBE0F901F901895E0910203F091B0
:1012E0000303E05CFF4F8191919120813181821B4A
:1012F000930B8F739070892B11F00E943109089520
:101300001F920F920FB60F9211242F933F938F933A
:101310009F93EF93FF932091F2023091F30280911B
:10132000F4029091F5022817390731F48091C10039
:101330008F7D8093C10014C0E091F402F091F5021A
:10134000EE54FD4F20818091F4029091F5020196B8
:101350008F7390709093F5028093F4022093C600EF
:10136000FF91EF919F918F913F912F910F900FBE21
:101370000F901F901895AF92BF92DF92EF92FF925D
:101380000F931F93CF93DF93EC017A018B01DD2440
:10139000403081EE580780E0680780E0780711F060
:1013A000DD24D39491E0A92EB12CEC89FD89DD20B8
:1013B00069F0C50108A002C0880F991F0A94E2F7DE
:1013C000808360E079E08DE390E005C0108260E802
:1013D00074E88EE190E0A80197010E94CD102150A1
:1013E000304040405040569547953795279580E1CD
:1013F0002030380720F0DD2011F0DD24D6CFE88939
:10140000F9893083EA89FB89208319A2EE89FF8953
:10141000408121E030E0C9010C8C02C0880F991F87
:101420000A94E2F7482B4083EE89FF894081C90185
:101430000D8C02C0880F991F0A94E2F7482B408355
:10144000EE89FF894081C9010E8C02C0880F991F67
:101450000A94E2F7482B4083EE89FF8980810F8C44
:1014600002C0220F331F0A94E2F72095282320831D
:10147000DF91CF911F910F91FF90EF90DF90BF9080
:10148000AF900895DC011C96ED91FC911D97E05CF6
:10149000FF4F2191319180819181281B390B2F734E
:1014A0003070C9010895DC011C96ED91FC911D97E7
:1014B000E05CFF4F20813181E054F040DF01AE5B02
:1014C000BF4F8D919C9111972817390719F42FEF71
:1014D0003FEF07C08D919C91E80FF91F8081282F65
:1014E00030E0C9010895DC011C96ED91FC911D9737
:1014F000E05CFF4F20813181E054F040DF01AE5BC2
:10150000BF4F8D919C9111972817390719F42FEF30
:101510003FEF10C08D919C911197E80FF91F20812A
:101520008D919C91119701968F73907011969C9359
:101530008E9330E0C9010895DC0191968C919197CA
:10154000882339F05496ED91FC915597808186FF60
:10155000F9CF91961C920895CF93DF93EC01EE851D
:10156000FF85E05CFF4F20813181E054F0402F5F28
:101570003F4F2F733070DF01AE5BBF4F8D919C9159
:10158000119728173907D1F3E05CFF4F80819181D3
:10159000E054F040E80FF91F6083EE85FF85E05CC2
:1015A000FF4F31832083EE89FF89208181E090E025
:1015B0000F8C02C0880F991F0A94E2F7282B208312
:1015C00081E089A3EC89FD8980818064808381E04A
:1015D00090E0DF91CF9108951092F9021092F802F5
:1015E00088EE93E0A0E0B0E08093FA029093FB02D3
:1015F000A093FC02B093FD0287EF91E09093F70275
:101600008093F6028EE692E09093030380930203A8
:1016100082EB92E0909305038093040385EC90E0C5
:10162000909307038093060384EC90E09093090362
:101630008093080380EC90E090930B0380930A035F
:1016400081EC90E090930D0380930C0382EC90E08A
:1016500090930F0380930E0386EC90E09093110318
:101660008093100384E08093120383E0809313033C
:1016700087E08093140385E08093150381E08093D5
:1016800016030895CF93DF930E94DD0D0E94FB02A5
:10169000CDE6D9E00E9459032097E1F30E946D093D
:1016A000F9CF0E9486010895CF92DF92EF92FF92C8
:1016B0000F931F93CF93DF937C016B018A01C0E0EE
:1016C000D0E00FC0D6016D916D01D701ED91FC9175
:1016D0000190F081E02DC7010995C80FD91F015075
:1016E00010400115110571F7CE01DF91CF911F91C7
:1016F0000F91FF90EF90DF90CF900895EF92FF92BF
:101700000F931F938C01DC01ED91FC910190F0810E
:10171000E02D6DE009957C01D801ED91FC910190DF
:10172000F081E02DC8016AE009959C012E0D3F1D56
:10173000C9011F910F91FF90EF900895CF93DF9310
:10174000EC016115710519F420E030E00FC0DB01F8
:101750000D900020E9F71197A61BB70BE881F981DE
:101760000280F381E02DAD0109959C01C901DF9153
:10177000CF9108954F925F927F928F929F92AF92F6
:10178000BF92CF92DF92EF92FF920F931F93DF935E
:10179000CF93CDB7DEB7A1970FB6F894DEBF0FBEDB
:1017A000CDBF2C01742ECB01223008F42AE019A2FF
:1017B00031E2C32ED12CCC0EDD1E822E9924AA2418
:1017C000BB24672D752FA50194010E94CD107901CE
:1017D0008A01C801B701A50194010E949B10472D01
:1017E000461B0894C108D1084A3014F4405D01C07A
:1017F000495CF6014083E114F1040105110521F073
:101800007E2C5F2DC801DDCFC201B6010E949E0B68
:10181000A1960FB6F894DEBF0FBECDBFCF91DF917A
:101820001F910F91FF90EF90DF90CF90BF90AF90FE
:101830009F908F907F905F904F900895CF92DF920E
:10184000EF92FF920F931F93CF93DF93EC016A0106
:101850007B012115310541F4E881F9810190F08186
:10186000E02D642F09951FC02A303105D1F477FF90
:1018700017C0E881F9810190F081E02D6DE20995B2
:101880008C0144275527BA014C195D096E097F095F
:10189000CE012AE00E94BA0B9801280F391F04C01C
:1018A0002AE00E94BA0B9C01C901DF91CF911F91E0
:1018B0000F91FF90EF90DF90CF900895CF92DF923D
:1018C000EF92FF920F931F936C017B019A01002707
:1018D000F7FC0095102FB801A7010E941E0C8C0187
:1018E000C6010E947E0B080F191FC8011F910F919E
:1018F000FF90EF90DF90CF9008950E949E0B089587
:10190000EF92FF920F931F937C010E949E0B8C011C
:10191000C7010E947E0B080F191FC8011F910F916C
:10192000FF90EF900895AF92BF92CF92DF92EF9227
:10193000FF920F931F93CF93DF935C016B01EE2413
:10194000FF24C0E0D0E010C0D501ED91FC910081F2
:101950001181C601BE010E94B70E682FC501F801B2
:101960000995E80EF91E2196F60184819581C81724
:10197000D90750F3C701DF91CF911F910F91FF90CD
:10198000EF90DF90CF90BF90AF900895EF92FF92CD
:101990000F931F937C010E94930C8C01C7010E943E
:1019A0007E0B9C01200F311FC9011F910F91FF90E9
:1019B000EF900895CF93DF93EC010E94CF0D6887DD
:1019C00079878A879B87E881F9810680F781E02DF6
:1019D000CE0109959C0197FF15C00E94CF0D288567
:1019E00039854A855B85621B730B840B950B2C81B3
:1019F0003D814E815F81621773078407950718F355
:101A00002FEF3FEFC901DF91CF9108956F927F9241
:101A10008F929F92AF92BF92CF92DF92EF92FF92FE
:101A20000F931F93CF93DF933C017B014A01590130
:101A30006801FB0180818823D1F1C0E0D0E02DC096
:101A4000F701EC0FFD1F8081992787FD90952817DE
:101A5000390711F0C0E0D0E0F701EC0FFD1F8081E5
:101A6000992787FD90952817390721F42196C815E5
:101A7000D905E8F4C114D10481F0F501E00FF11F9C
:101A80008081992787FD90952817390731F40F5FDA
:101A90001F4F0C151D0518F00CC000E010E0C3012D
:101AA0000E94DA0C9C011816190654F202C081E05B
:101AB00001C080E0DF91CF911F910F91FF90EF90D7
:101AC000DF90CF90BF90AF909F908F907F906F905E
:101AD00008950F931F939A01DB010D900020E9F701
:101AE000AD0141505040461B570BD9010D900020CD
:101AF000E9F71197A21BB30B8D010E94060D1F91F0
:101B00000F91089540E050E00E94690D08951F92E2
:101B10000F920FB60F9211242F933F938F939F93A1
:101B2000AF93BF9380911C0390911D03A0911E035E
:101B3000B0911F03309120030196A11DB11D232FE9
:101B40002D5F2D3720F02D570196A11DB11D20933B
:101B5000200380931C0390931D03A0931E03B09356
:101B60001F038091180390911903A0911A03B0915B
:101B70001B030196A11DB11D8093180390931903B7
:101B8000A0931A03B0931B03BF91AF919F918F91C4
:101B90003F912F910F900FBE0F901F9018958FB708
:101BA000F89420911C0330911D0340911E03509125
:101BB0001F038FBFB901CA010895789484B582606C
:101BC00084BD84B5816084BD85B5826085BD85B5E1
:101BD000816085BDEEE6F0E0808181608083E1E890
:101BE000F0E01082808182608083808181608083C8
:101BF000E0E8F0E0808181608083E1EBF0E08081CB
:101C000084608083E0EBF0E0808181608083EAE79C
:101C1000F0E0808184608083808182608083808125
:101C2000816080838081806880831092C1000895E4
:101C3000CF93DF93482F50E0CA018A5C9E4FFC018E
:101C400034914E5D5E4FFA018491882369F190E0F2
:101C5000880F991FFC01EC5FFE4FA591B491FC0128
:101C6000E25FFE4FC591D491662351F42FB7F894EB
:101C70008C91932F909589238C93888189230BC015
:101C8000623061F42FB7F8948C91932F909589234B
:101C90008C938881832B88832FBF06C09FB7F894CD
:101CA0008C91832B8C939FBFDF91CF9108958330CC
:101CB00071F0843028F48130A1F0823021F514C015
:101CC0008630B1F08730D1F08430E9F404C08091DF
:101CD00080008F7703C0809180008F7D809380008B
:101CE000089584B58F7702C084B58F7D84BD089533
:101CF0008091B0008F778093B00008958091B000FC
:101D00008F7D8093B0000895FF920F931F93F62E5E
:101D1000482F50E0CA01865B9E4FFC012491CA0106
:101D20008A5C9E4FFC0114914E5D5E4FFA01049156
:101D30000023C9F0222319F0822F0E94570EE02FB2
:101D4000F0E0EE0FFF1FE25FFE4FA591B4919FB749
:101D5000F894FF2021F48C911095812302C08C917E
:101D6000812B8C939FBF1F910F91FF900895FC01D1
:101D7000848195816817790748F40190F081E02DFE
:101D8000309721F0E60FF71F8081089580E00895D5
:101D9000CF92DF92EF92FF920F931F93CF93DF9337
:101DA0006C01DC01ED90FC901197E114F10409F451
:101DB00041C01496CD91DC9115972097D9F18701F8
:101DC00002C00F5F1F4FF8018081992787FD909512
:101DD0000E940911892BA9F72197CE0DDF1D01C0A3
:101DE00021978881992787FD90950E940911892B59
:101DF00019F0C017D107A0F7FE013196E01BF10BD7
:101E0000D6011596FC93EE9314972D913C912017D3
:101E1000310728F4C901B801AF010E94B302D6010D
:101E2000ED91FC91119714968D919C911597E80F67
:101E3000F91F1082DF91CF911F910F91FF90EF90CA
:101E4000DF90CF900895FC01DB0124813581149649
:101E50004D915C91159724173507A8F080819181E9
:101E6000009789F06D917C916115710561F0241BDB
:101E7000350B820F931F0E94BC029C0180E0232B34
:101E800019F481E0089580E008950F931F93CF9394
:101E9000DF93EC018B016F5F7F4F888199810E94F6
:101EA000DE01009711F480E005C0998388831B83CD
:101EB0000A8381E0DF91CF911F910F910895CF9315
:101EC000DF93EC0188819981892B29F08A819B819C
:101ED0008617970760F4CE010E94450F882341F0D2
:101EE0008C819D81892B19F4E881F981108281E030
:101EF000DF91CF910895EF92FF920F931F93CF93AD
:101F0000DF93EC017B016C817D81E114F104C1F070
:101F10004115510599F08A01060F171FB8010E945B
:101F20005F0F882369F0888199812C813D81820F20
:101F3000931FB7010E94C5021D830C8381E001C07D
:101F400080E0DF91CF911F910F91FF90EF90089566
:101F5000DF93CF9300D0CDB7DEB769831A82BE017D
:101F60006F5F7F4F41E050E00E947B0F0F900F901A
:101F7000CF91DF910895CF93DF93EC018881998110
:101F8000009711F00E948601198218821D821C821E
:101F90001B821A82DF91CF9108950F931F93182F00
:101FA000092F6115710561F0DB010D900020E9F743
:101FB0001197A61BB70BAD010E947B0F882321F45C
:101FC000812F902F0E94BB0F812F902F1F910F9177
:101FD00008950F931F93182F092FFB0160817181C2
:101FE000448155810E947B0F882321F4812F902FFB
:101FF0000E94BB0F812F902F1F910F910895EF9298
:10200000FF920F931F93CF93DF93EC017B018A0123
:10201000BA010E945F0F882321F4CE010E94BB0FFA
:1020200007C01D830C8388819981B7010E94C50276
:10203000CE01DF91CF911F910F91FF90EF90089506
:10204000CF93DF93EC01198218821B821A821D82C2
:102050001C821E826115710551F0DB010D9000207C
:10206000E9F71197A61BB70BAD010E94FF0FDF9197
:10207000CF910895CF93DF93EC01198218821B82D0
:102080001A821D821C821E826115710551F0DB01CE
:102090000D900020E9F71197A61BB70BAD010E9428
:1020A000FF0FDF91CF9108950F931F93182F092FE2
:1020B0006115710559F0DB010D900020E9F71197CA
:1020C000A61BB70BAD010E94FF0F02C00E94BB0F01
:1020D000812F902F1F910F910895CF93DF93EC01E3
:1020E000FB018617970761F06081718161157105A9
:1020F00029F0448155810E94FF0F02C00E94BB0F4E
:10210000CE01DF91CF910895FC01118210821382DC
:1021100012821582148216820E946D100895FC01AD
:10212000808191810E9486010895FC0180819181C6
:102130000E9486010895629FD001739FF001829FE3
:10214000E00DF11D649FE00DF11D929FF00D839F46
:10215000F00D749FF00D659FF00D9927729FB00DE3
:10216000E11DF91F639FB00DE11DF91FBD01CF01F6
:102170001124089597FB092E07260AD077FD04D075
:102180002ED006D000201AF4709561957F4F0895E7
:10219000F6F7909581959F4F0895A1E21A2EAA1BFC
:1021A000BB1BFD010DC0AA1FBB1FEE1FFF1FA21707
:1021B000B307E407F50720F0A21BB30BE40BF50B04
:1021C000661F771F881F991F1A9469F7609570958D
:1021D000809590959B01AC01BD01CF010895AA1B8C
:1021E000BB1B51E107C0AA1FBB1FA617B70710F002
:1021F000A61BB70B881F991F5A95A9F78095909534
:10220000BC01CD010895EE0FFF1F0590F491E02D64
:102210000994911106C0803219F089508550D0F789
:1022200008959927882708952F923F924F925F92A1
:102230006F927F928F929F92AF92BF92CF92DF92D6
:10224000EF92FF920F931F93CF93DF93CDB7DEB73B
:10225000CA1BDB0B0FB6F894DEBF0FBECDBF0994CF
:102260002A88398848885F846E847D848C849B8426
:10227000AA84B984C884DF80EE80FD800C811B8134
:10228000AA81B981CE0FD11D0FB6F894DEBF0FBE63
:10229000CDBFED01089511E0C2E6D1E004C0FE011A
:1022A0000E9405112296C436D107C9F7F894FFCFD2
:1022B000005F5F006472616361656E616472616397
:1022C0006F0057696669207374617475732E2E2EC2
:1022D0002E204F4B2E005769666920737461747508
:1022E000732E2E2E2E204641494C2E004F4B2E2E63
:1022F0002E2E2E2E2E2E2E2E2E2E2E2E2E2E2E002C
:102300004641494C2E2E2E2E2E2E2E2E2E2E2E2E89
:102310002E2E2E2E2E2E2E2E00004F4B0041542BF3
:102320004349504D55583D310041542B434950537A
:1023300045525645523D312C0041542B4350495390
:10234000544152543D22544350222C2200222C004E
:1023500041542B43495053454E443D302C200041BD
:10236000542B43574D4F44453D330041542B434973
:102370004653520041542B43574A41503D220022BC
:102380002C22002200200025030000000000006530
:1023900005770500000000CE07540BB407930791A2
:1023A00008800800000000AC0A540B420A730A536C
:0423B0000A9C0A0079
:00000001FF
